{
  "_format": "hh-sol-artifact-1",
  "contractName": "GameEncanto",
  "sourceName": "contracts/MyEpicGame.sol",
  "abi": [
    {
      "inputs": [
        {
          "internalType": "string[]",
          "name": "characterNames",
          "type": "string[]"
        },
        {
          "internalType": "string[]",
          "name": "characterImageURIs",
          "type": "string[]"
        },
        {
          "internalType": "uint256[]",
          "name": "characterHp",
          "type": "uint256[]"
        },
        {
          "internalType": "uint256[]",
          "name": "characterAttackDmg",
          "type": "uint256[]"
        },
        {
          "internalType": "string",
          "name": "bossName",
          "type": "string"
        },
        {
          "internalType": "string",
          "name": "bossImageURI",
          "type": "string"
        },
        {
          "internalType": "uint256",
          "name": "bossHp",
          "type": "uint256"
        },
        {
          "internalType": "uint256",
          "name": "bossAttackDamage",
          "type": "uint256"
        }
      ],
      "stateMutability": "nonpayable",
      "type": "constructor"
    },
    {
      "anonymous": false,
      "inputs": [
        {
          "indexed": true,
          "internalType": "address",
          "name": "owner",
          "type": "address"
        },
        {
          "indexed": true,
          "internalType": "address",
          "name": "approved",
          "type": "address"
        },
        {
          "indexed": true,
          "internalType": "uint256",
          "name": "tokenId",
          "type": "uint256"
        }
      ],
      "name": "Approval",
      "type": "event"
    },
    {
      "anonymous": false,
      "inputs": [
        {
          "indexed": true,
          "internalType": "address",
          "name": "owner",
          "type": "address"
        },
        {
          "indexed": true,
          "internalType": "address",
          "name": "operator",
          "type": "address"
        },
        {
          "indexed": false,
          "internalType": "bool",
          "name": "approved",
          "type": "bool"
        }
      ],
      "name": "ApprovalForAll",
      "type": "event"
    },
    {
      "anonymous": false,
      "inputs": [
        {
          "indexed": false,
          "internalType": "address",
          "name": "sender",
          "type": "address"
        },
        {
          "indexed": false,
          "internalType": "uint256",
          "name": "newBossHp",
          "type": "uint256"
        },
        {
          "indexed": false,
          "internalType": "uint256",
          "name": "newPlayerHp",
          "type": "uint256"
        }
      ],
      "name": "AttackComplete",
      "type": "event"
    },
    {
      "anonymous": false,
      "inputs": [
        {
          "indexed": false,
          "internalType": "address",
          "name": "sender",
          "type": "address"
        },
        {
          "indexed": false,
          "internalType": "uint256",
          "name": "tokenId",
          "type": "uint256"
        },
        {
          "indexed": false,
          "internalType": "uint256",
          "name": "characterIndex",
          "type": "uint256"
        }
      ],
      "name": "CharacterNFTMinted",
      "type": "event"
    },
    {
      "anonymous": false,
      "inputs": [
        {
          "indexed": true,
          "internalType": "address",
          "name": "previousOwner",
          "type": "address"
        },
        {
          "indexed": true,
          "internalType": "address",
          "name": "newOwner",
          "type": "address"
        }
      ],
      "name": "OwnershipTransferred",
      "type": "event"
    },
    {
      "anonymous": false,
      "inputs": [
        {
          "indexed": true,
          "internalType": "address",
          "name": "from",
          "type": "address"
        },
        {
          "indexed": true,
          "internalType": "address",
          "name": "to",
          "type": "address"
        },
        {
          "indexed": true,
          "internalType": "uint256",
          "name": "tokenId",
          "type": "uint256"
        }
      ],
      "name": "Transfer",
      "type": "event"
    },
    {
      "stateMutability": "payable",
      "type": "fallback"
    },
    {
      "inputs": [
        {
          "internalType": "address",
          "name": "to",
          "type": "address"
        },
        {
          "internalType": "uint256",
          "name": "tokenId",
          "type": "uint256"
        }
      ],
      "name": "approve",
      "outputs": [],
      "stateMutability": "nonpayable",
      "type": "function"
    },
    {
      "inputs": [],
      "name": "attackBoss",
      "outputs": [],
      "stateMutability": "nonpayable",
      "type": "function"
    },
    {
      "inputs": [
        {
          "internalType": "address",
          "name": "owner",
          "type": "address"
        }
      ],
      "name": "balanceOf",
      "outputs": [
        {
          "internalType": "uint256",
          "name": "",
          "type": "uint256"
        }
      ],
      "stateMutability": "view",
      "type": "function"
    },
    {
      "inputs": [],
      "name": "bigBoss",
      "outputs": [
        {
          "internalType": "string",
          "name": "name",
          "type": "string"
        },
        {
          "internalType": "string",
          "name": "imageURI",
          "type": "string"
        },
        {
          "internalType": "uint256",
          "name": "hp",
          "type": "uint256"
        },
        {
          "internalType": "uint256",
          "name": "maxHp",
          "type": "uint256"
        },
        {
          "internalType": "uint256",
          "name": "attackDamage",
          "type": "uint256"
        }
      ],
      "stateMutability": "view",
      "type": "function"
    },
    {
      "inputs": [],
      "name": "checkIfUserHasNFT",
      "outputs": [
        {
          "components": [
            {
              "internalType": "uint256",
              "name": "characterIndex",
              "type": "uint256"
            },
            {
              "internalType": "address",
              "name": "owner",
              "type": "address"
            },
            {
              "internalType": "string",
              "name": "name",
              "type": "string"
            },
            {
              "internalType": "string",
              "name": "imageURI",
              "type": "string"
            },
            {
              "internalType": "uint256",
              "name": "hp",
              "type": "uint256"
            },
            {
              "internalType": "uint256",
              "name": "maxHp",
              "type": "uint256"
            },
            {
              "internalType": "uint256",
              "name": "attackDamage",
              "type": "uint256"
            },
            {
              "internalType": "uint256",
              "name": "damageGenerated",
              "type": "uint256"
            }
          ],
          "internalType": "struct GameEncanto.CharacterAttributes",
          "name": "",
          "type": "tuple"
        }
      ],
      "stateMutability": "view",
      "type": "function"
    },
    {
      "inputs": [],
      "name": "getAllDefaultCharacters",
      "outputs": [
        {
          "components": [
            {
              "internalType": "uint256",
              "name": "characterIndex",
              "type": "uint256"
            },
            {
              "internalType": "address",
              "name": "owner",
              "type": "address"
            },
            {
              "internalType": "string",
              "name": "name",
              "type": "string"
            },
            {
              "internalType": "string",
              "name": "imageURI",
              "type": "string"
            },
            {
              "internalType": "uint256",
              "name": "hp",
              "type": "uint256"
            },
            {
              "internalType": "uint256",
              "name": "maxHp",
              "type": "uint256"
            },
            {
              "internalType": "uint256",
              "name": "attackDamage",
              "type": "uint256"
            },
            {
              "internalType": "uint256",
              "name": "damageGenerated",
              "type": "uint256"
            }
          ],
          "internalType": "struct GameEncanto.CharacterAttributes[]",
          "name": "",
          "type": "tuple[]"
        }
      ],
      "stateMutability": "view",
      "type": "function"
    },
    {
      "inputs": [
        {
          "internalType": "uint256",
          "name": "tokenId",
          "type": "uint256"
        }
      ],
      "name": "getApproved",
      "outputs": [
        {
          "internalType": "address",
          "name": "",
          "type": "address"
        }
      ],
      "stateMutability": "view",
      "type": "function"
    },
    {
      "inputs": [],
      "name": "getBigBoss",
      "outputs": [
        {
          "components": [
            {
              "internalType": "string",
              "name": "name",
              "type": "string"
            },
            {
              "internalType": "string",
              "name": "imageURI",
              "type": "string"
            },
            {
              "internalType": "uint256",
              "name": "hp",
              "type": "uint256"
            },
            {
              "internalType": "uint256",
              "name": "maxHp",
              "type": "uint256"
            },
            {
              "internalType": "uint256",
              "name": "attackDamage",
              "type": "uint256"
            }
          ],
          "internalType": "struct GameEncanto.BigBoss",
          "name": "",
          "type": "tuple"
        }
      ],
      "stateMutability": "view",
      "type": "function"
    },
    {
      "inputs": [
        {
          "internalType": "address",
          "name": "owner",
          "type": "address"
        },
        {
          "internalType": "address",
          "name": "operator",
          "type": "address"
        }
      ],
      "name": "isApprovedForAll",
      "outputs": [
        {
          "internalType": "bool",
          "name": "",
          "type": "bool"
        }
      ],
      "stateMutability": "view",
      "type": "function"
    },
    {
      "inputs": [
        {
          "internalType": "uint256",
          "name": "_characterIndex",
          "type": "uint256"
        }
      ],
      "name": "mintCharacterNFT",
      "outputs": [],
      "stateMutability": "payable",
      "type": "function"
    },
    {
      "inputs": [],
      "name": "name",
      "outputs": [
        {
          "internalType": "string",
          "name": "",
          "type": "string"
        }
      ],
      "stateMutability": "view",
      "type": "function"
    },
    {
      "inputs": [
        {
          "internalType": "uint256",
          "name": "",
          "type": "uint256"
        }
      ],
      "name": "nftHolderAttributes",
      "outputs": [
        {
          "internalType": "uint256",
          "name": "characterIndex",
          "type": "uint256"
        },
        {
          "internalType": "address",
          "name": "owner",
          "type": "address"
        },
        {
          "internalType": "string",
          "name": "name",
          "type": "string"
        },
        {
          "internalType": "string",
          "name": "imageURI",
          "type": "string"
        },
        {
          "internalType": "uint256",
          "name": "hp",
          "type": "uint256"
        },
        {
          "internalType": "uint256",
          "name": "maxHp",
          "type": "uint256"
        },
        {
          "internalType": "uint256",
          "name": "attackDamage",
          "type": "uint256"
        },
        {
          "internalType": "uint256",
          "name": "damageGenerated",
          "type": "uint256"
        }
      ],
      "stateMutability": "view",
      "type": "function"
    },
    {
      "inputs": [
        {
          "internalType": "address",
          "name": "",
          "type": "address"
        }
      ],
      "name": "nftHolders",
      "outputs": [
        {
          "internalType": "uint256",
          "name": "",
          "type": "uint256"
        }
      ],
      "stateMutability": "view",
      "type": "function"
    },
    {
      "inputs": [],
      "name": "owner",
      "outputs": [
        {
          "internalType": "address",
          "name": "",
          "type": "address"
        }
      ],
      "stateMutability": "view",
      "type": "function"
    },
    {
      "inputs": [
        {
          "internalType": "uint256",
          "name": "tokenId",
          "type": "uint256"
        }
      ],
      "name": "ownerOf",
      "outputs": [
        {
          "internalType": "address",
          "name": "",
          "type": "address"
        }
      ],
      "stateMutability": "view",
      "type": "function"
    },
    {
      "inputs": [],
      "name": "renounceOwnership",
      "outputs": [],
      "stateMutability": "nonpayable",
      "type": "function"
    },
    {
      "inputs": [],
      "name": "revive",
      "outputs": [],
      "stateMutability": "payable",
      "type": "function"
    },
    {
      "inputs": [
        {
          "internalType": "address",
          "name": "from",
          "type": "address"
        },
        {
          "internalType": "address",
          "name": "to",
          "type": "address"
        },
        {
          "internalType": "uint256",
          "name": "tokenId",
          "type": "uint256"
        }
      ],
      "name": "safeTransferFrom",
      "outputs": [],
      "stateMutability": "nonpayable",
      "type": "function"
    },
    {
      "inputs": [
        {
          "internalType": "address",
          "name": "from",
          "type": "address"
        },
        {
          "internalType": "address",
          "name": "to",
          "type": "address"
        },
        {
          "internalType": "uint256",
          "name": "tokenId",
          "type": "uint256"
        },
        {
          "internalType": "bytes",
          "name": "data",
          "type": "bytes"
        }
      ],
      "name": "safeTransferFrom",
      "outputs": [],
      "stateMutability": "nonpayable",
      "type": "function"
    },
    {
      "inputs": [
        {
          "internalType": "address",
          "name": "operator",
          "type": "address"
        },
        {
          "internalType": "bool",
          "name": "approved",
          "type": "bool"
        }
      ],
      "name": "setApprovalForAll",
      "outputs": [],
      "stateMutability": "nonpayable",
      "type": "function"
    },
    {
      "inputs": [
        {
          "internalType": "uint256",
          "name": "_mintCost",
          "type": "uint256"
        }
      ],
      "name": "setUpMintCost",
      "outputs": [],
      "stateMutability": "nonpayable",
      "type": "function"
    },
    {
      "inputs": [
        {
          "internalType": "uint256",
          "name": "_reviveCost",
          "type": "uint256"
        }
      ],
      "name": "setUpReviveCost",
      "outputs": [],
      "stateMutability": "nonpayable",
      "type": "function"
    },
    {
      "inputs": [
        {
          "internalType": "bytes4",
          "name": "interfaceId",
          "type": "bytes4"
        }
      ],
      "name": "supportsInterface",
      "outputs": [
        {
          "internalType": "bool",
          "name": "",
          "type": "bool"
        }
      ],
      "stateMutability": "view",
      "type": "function"
    },
    {
      "inputs": [],
      "name": "symbol",
      "outputs": [
        {
          "internalType": "string",
          "name": "",
          "type": "string"
        }
      ],
      "stateMutability": "view",
      "type": "function"
    },
    {
      "inputs": [
        {
          "internalType": "uint256",
          "name": "_tokenId",
          "type": "uint256"
        }
      ],
      "name": "tokenURI",
      "outputs": [
        {
          "internalType": "string",
          "name": "",
          "type": "string"
        }
      ],
      "stateMutability": "view",
      "type": "function"
    },
    {
      "inputs": [
        {
          "internalType": "address",
          "name": "from",
          "type": "address"
        },
        {
          "internalType": "address",
          "name": "to",
          "type": "address"
        },
        {
          "internalType": "uint256",
          "name": "tokenId",
          "type": "uint256"
        }
      ],
      "name": "transferFrom",
      "outputs": [],
      "stateMutability": "nonpayable",
      "type": "function"
    },
    {
      "inputs": [
        {
          "internalType": "address",
          "name": "newOwner",
          "type": "address"
        }
      ],
      "name": "transferOwnership",
      "outputs": [],
      "stateMutability": "nonpayable",
      "type": "function"
    },
    {
      "stateMutability": "payable",
      "type": "receive"
    }
  ],
  "bytecode": "0x608060405260006010553480156200001657600080fd5b50604051620072533803806200725383398181016040528101906200003c919062000c41565b6040518060400160405280600881526020017f456e2d63616e746f0000000000000000000000000000000000000000000000008152506040518060400160405280600481526020017f452d4354000000000000000000000000000000000000000000000000000000008152508160009081620000b9919062001005565b508060019081620000cb919062001005565b505050620000ee620000e2620006fe60201b60201c565b6200070660201b60201c565b6040518060a0016040528085815260200184815260200183815260200183815260200182815250600760008201518160000190816200012e919062001005565b50602082015181600101908162000146919062001005565b50604082015181600201556060820151816003015560808201518160040155905050620002c96040518060600160405280602a815260200162007229602a913960076000018054620001989062000dfe565b80601f0160208091040260200160405190810160405280929190818152602001828054620001c69062000dfe565b8015620002175780601f10620001eb5761010080835404028352916020019162000217565b820191906000526020600020905b815481529060010190602001808311620001f957829003601f168201915b505050505060076002015460076001018054620002349062000dfe565b80601f0160208091040260200160405190810160405280929190818152602001828054620002629062000dfe565b8015620002b35780601f106200028757610100808354040283529160200191620002b3565b820191906000526020600020905b8154815290600101906020018083116200029557829003601f168201915b5050505050620007cc60201b6200241d1760201c565b60005b8851811015620006d557600f604051806101000160405280838152602001600073ffffffffffffffffffffffffffffffffffffffff1681526020018b84815181106200031d576200031c620010ec565b5b602002602001015181526020018a848151811062000340576200033f620010ec565b5b60200260200101518152602001898481518110620003635762000362620010ec565b5b60200260200101518152602001898481518110620003865762000385620010ec565b5b60200260200101518152602001888481518110620003a957620003a8620010ec565b5b60200260200101518152602001600081525090806001815401808255809150506001900390600052602060002090600802016000909190919091506000820151816000015560208201518160010160006101000a81548173ffffffffffffffffffffffffffffffffffffffff021916908373ffffffffffffffffffffffffffffffffffffffff16021790555060408201518160020190816200044c919062001005565b50606082015181600301908162000464919062001005565b506080820151816004015560a0820151816005015560c0820151816006015560e0820151816007015550506000600f8281548110620004a857620004a7620010ec565b5b906000526020600020906008020160405180610100016040529081600082015481526020016001820160009054906101000a900473ffffffffffffffffffffffffffffffffffffffff1673ffffffffffffffffffffffffffffffffffffffff1673ffffffffffffffffffffffffffffffffffffffff168152602001600282018054620005349062000dfe565b80601f0160208091040260200160405190810160405280929190818152602001828054620005629062000dfe565b8015620005b35780601f106200058757610100808354040283529160200191620005b3565b820191906000526020600020905b8154815290600101906020018083116200059557829003601f168201915b50505050508152602001600382018054620005ce9062000dfe565b80601f0160208091040260200160405190810160405280929190818152602001828054620005fc9062000dfe565b80156200064d5780601f1062000621576101008083540402835291602001916200064d565b820191906000526020600020905b8154815290600101906020018083116200062f57829003601f168201915b505050505081526020016004820154815260200160058201548152602001600682015481526020016007820154815250509050620006be6040518060600160405280602581526020016200720460259139826040015183608001518460600151620007cc60201b6200241d1760201c565b508080620006cc906200114a565b915050620002cc565b50600c6000815480929190620006eb906200114a565b919050555050505050505050506200125c565b600033905090565b6000600660009054906101000a900473ffffffffffffffffffffffffffffffffffffffff16905081600660006101000a81548173ffffffffffffffffffffffffffffffffffffffff021916908373ffffffffffffffffffffffffffffffffffffffff1602179055508173ffffffffffffffffffffffffffffffffffffffff168173ffffffffffffffffffffffffffffffffffffffff167f8be0079c531659141344cd1fd0a4f28419497f9722a3daafe3b4186f6b6457e060405160405180910390a35050565b6200087284848484604051602401620007e99493929190620011fa565b6040516020818303038152906040527f5d1a971a000000000000000000000000000000000000000000000000000000007bffffffffffffffffffffffffffffffffffffffffffffffffffffffff19166020820180517bffffffffffffffffffffffffffffffffffffffffffffffffffffffff83818316178352505050506200087860201b60201c565b50505050565b60008151905060006a636f6e736f6c652e6c6f679050602083016000808483855afa5050505050565b6000604051905090565b600080fd5b600080fd5b600080fd5b6000601f19601f8301169050919050565b7f4e487b7100000000000000000000000000000000000000000000000000000000600052604160045260246000fd5b6200090582620008ba565b810181811067ffffffffffffffff82111715620009275762000926620008cb565b5b80604052505050565b60006200093c620008a1565b90506200094a8282620008fa565b919050565b600067ffffffffffffffff8211156200096d576200096c620008cb565b5b602082029050602081019050919050565b600080fd5b600080fd5b600067ffffffffffffffff821115620009a657620009a5620008cb565b5b620009b182620008ba565b9050602081019050919050565b60005b83811015620009de578082015181840152602081019050620009c1565b60008484015250505050565b600062000a01620009fb8462000988565b62000930565b90508281526020810184848401111562000a205762000a1f62000983565b5b62000a2d848285620009be565b509392505050565b600082601f83011262000a4d5762000a4c620008b5565b5b815162000a5f848260208601620009ea565b91505092915050565b600062000a7f62000a79846200094f565b62000930565b9050808382526020820190506020840283018581111562000aa55762000aa46200097e565b5b835b8181101562000af357805167ffffffffffffffff81111562000ace5762000acd620008b5565b5b80860162000add898262000a35565b8552602085019450505060208101905062000aa7565b5050509392505050565b600082601f83011262000b155762000b14620008b5565b5b815162000b2784826020860162000a68565b91505092915050565b600067ffffffffffffffff82111562000b4e5762000b4d620008cb565b5b602082029050602081019050919050565b6000819050919050565b62000b748162000b5f565b811462000b8057600080fd5b50565b60008151905062000b948162000b69565b92915050565b600062000bb162000bab8462000b30565b62000930565b9050808382526020820190506020840283018581111562000bd75762000bd66200097e565b5b835b8181101562000c04578062000bef888262000b83565b84526020840193505060208101905062000bd9565b5050509392505050565b600082601f83011262000c265762000c25620008b5565b5b815162000c3884826020860162000b9a565b91505092915050565b600080600080600080600080610100898b03121562000c655762000c64620008ab565b5b600089015167ffffffffffffffff81111562000c865762000c85620008b0565b5b62000c948b828c0162000afd565b985050602089015167ffffffffffffffff81111562000cb85762000cb7620008b0565b5b62000cc68b828c0162000afd565b975050604089015167ffffffffffffffff81111562000cea5762000ce9620008b0565b5b62000cf88b828c0162000c0e565b965050606089015167ffffffffffffffff81111562000d1c5762000d1b620008b0565b5b62000d2a8b828c0162000c0e565b955050608089015167ffffffffffffffff81111562000d4e5762000d4d620008b0565b5b62000d5c8b828c0162000a35565b94505060a089015167ffffffffffffffff81111562000d805762000d7f620008b0565b5b62000d8e8b828c0162000a35565b93505060c062000da18b828c0162000b83565b92505060e062000db48b828c0162000b83565b9150509295985092959890939650565b600081519050919050565b7f4e487b7100000000000000000000000000000000000000000000000000000000600052602260045260246000fd5b6000600282049050600182168062000e1757607f821691505b60208210810362000e2d5762000e2c62000dcf565b5b50919050565b60008190508160005260206000209050919050565b60006020601f8301049050919050565b600082821b905092915050565b60006008830262000e977fffffffffffffffffffffffffffffffffffffffffffffffffffffffffffffffff8262000e58565b62000ea3868362000e58565b95508019841693508086168417925050509392505050565b6000819050919050565b600062000ee662000ee062000eda8462000b5f565b62000ebb565b62000b5f565b9050919050565b6000819050919050565b62000f028362000ec5565b62000f1a62000f118262000eed565b84845462000e65565b825550505050565b600090565b62000f3162000f22565b62000f3e81848462000ef7565b505050565b5b8181101562000f665762000f5a60008262000f27565b60018101905062000f44565b5050565b601f82111562000fb55762000f7f8162000e33565b62000f8a8462000e48565b8101602085101562000f9a578190505b62000fb262000fa98562000e48565b83018262000f43565b50505b505050565b600082821c905092915050565b600062000fda6000198460080262000fba565b1980831691505092915050565b600062000ff5838362000fc7565b9150826002028217905092915050565b620010108262000dc4565b67ffffffffffffffff8111156200102c576200102b620008cb565b5b62001038825462000dfe565b6200104582828562000f6a565b600060209050601f8311600181146200107d576000841562001068578287015190505b62001074858262000fe7565b865550620010e4565b601f1984166200108d8662000e33565b60005b82811015620010b75784890151825560018201915060208501945060208101905062001090565b86831015620010d75784890151620010d3601f89168262000fc7565b8355505b6001600288020188555050505b505050505050565b7f4e487b7100000000000000000000000000000000000000000000000000000000600052603260045260246000fd5b7f4e487b7100000000000000000000000000000000000000000000000000000000600052601160045260246000fd5b6000620011578262000b5f565b91507fffffffffffffffffffffffffffffffffffffffffffffffffffffffffffffffff82036200118c576200118b6200111b565b5b600182019050919050565b600082825260208201905092915050565b6000620011b58262000dc4565b620011c1818562001197565b9350620011d3818560208601620009be565b620011de81620008ba565b840191505092915050565b620011f48162000b5f565b82525050565b60006080820190508181036000830152620012168187620011a8565b905081810360208301526200122c8186620011a8565b90506200123d6040830185620011e9565b8181036060830152620012518184620011a8565b905095945050505050565b615f98806200126c6000396000f3fe6080604052600436106101a05760003560e01c80638da5cb5b116100ec578063b953084e1161008a578063d4f24c5b11610064578063d4f24c5b146105cc578063e985e9c5146105e3578063f2fde38b14610620578063f8b81ef714610649576101a7565b8063b953084e14610539578063c87b56dd14610564578063c8cf27f4146105a1576101a7565b806398da4c95116100c657806398da4c9514610474578063a22cb465146104b8578063a9c32679146104e1578063b88d4fde14610510576101a7565b80638da5cb5b1461041457806395851a651461043f57806395d89b4114610449576101a7565b806323b872dd1161015957806370a082311161013357806370a082311461035a578063715018a6146103975780637df124a1146103ae57806382c9fc85146103eb576101a7565b806323b872dd146102cb57806342842e0e146102f45780636352211e1461031d576101a7565b806301ffc9a7146101a95780630665f961146101e657806306fdde0314610211578063081812fc1461023c578063095ea7b3146102795780630e64c709146102a2576101a7565b366101a757005b005b3480156101b557600080fd5b506101d060048036038101906101cb9190613f54565b610665565b6040516101dd9190613f9c565b60405180910390f35b3480156101f257600080fd5b506101fb610747565b60405161020891906140dd565b60405180910390f35b34801561021d57600080fd5b506102266108a3565b6040516102339190614149565b60405180910390f35b34801561024857600080fd5b50610263600480360381019061025e9190614197565b610935565b6040516102709190614205565b60405180910390f35b34801561028557600080fd5b506102a0600480360381019061029b919061424c565b61097b565b005b3480156102ae57600080fd5b506102c960048036038101906102c49190614197565b610a92565b005b3480156102d757600080fd5b506102f260048036038101906102ed919061428c565b610aa4565b005b34801561030057600080fd5b5061031b6004803603810190610316919061428c565b610b04565b005b34801561032957600080fd5b50610344600480360381019061033f9190614197565b610b24565b6040516103519190614205565b60405180910390f35b34801561036657600080fd5b50610381600480360381019061037c91906142df565b610baa565b60405161038e919061431b565b60405180910390f35b3480156103a357600080fd5b506103ac610c61565b005b3480156103ba57600080fd5b506103d560048036038101906103d091906142df565b610c75565b6040516103e2919061431b565b60405180910390f35b3480156103f757600080fd5b50610412600480360381019061040d9190614197565b610c8d565b005b34801561042057600080fd5b50610429610c9f565b6040516104369190614205565b60405180910390f35b610447610cc9565b005b34801561045557600080fd5b5061045e610dbf565b60405161046b9190614149565b60405180910390f35b34801561048057600080fd5b5061049b60048036038101906104969190614197565b610e51565b6040516104af989796959493929190614336565b60405180910390f35b3480156104c457600080fd5b506104df60048036038101906104da91906143ee565b610fc9565b005b3480156104ed57600080fd5b506104f6610fdf565b60405161050795949392919061442e565b60405180910390f35b34801561051c57600080fd5b50610537600480360381019061053291906145c4565b611113565b005b34801561054557600080fd5b5061054e611175565b60405161055b91906147cf565b60405180910390f35b34801561057057600080fd5b5061058b60048036038101906105869190614197565b611381565b6040516105989190614149565b60405180910390f35b3480156105ad57600080fd5b506105b66115f1565b6040516105c391906148a8565b60405180910390f35b3480156105d857600080fd5b506105e161182a565b005b3480156105ef57600080fd5b5061060a600480360381019061060591906148ca565b611e81565b6040516106179190613f9c565b60405180910390f35b34801561062c57600080fd5b50610647600480360381019061064291906142df565b611f15565b005b610663600480360381019061065e9190614197565b611f98565b005b60007f80ac58cd000000000000000000000000000000000000000000000000000000007bffffffffffffffffffffffffffffffffffffffffffffffffffffffff1916827bffffffffffffffffffffffffffffffffffffffffffffffffffffffff1916148061073057507f5b5e139f000000000000000000000000000000000000000000000000000000007bffffffffffffffffffffffffffffffffffffffffffffffffffffffff1916827bffffffffffffffffffffffffffffffffffffffffffffffffffffffff1916145b80610740575061073f826124bf565b5b9050919050565b61074f613e5e565b60076040518060a001604052908160008201805461076c90614939565b80601f016020809104026020016040519081016040528092919081815260200182805461079890614939565b80156107e55780601f106107ba576101008083540402835291602001916107e5565b820191906000526020600020905b8154815290600101906020018083116107c857829003601f168201915b505050505081526020016001820180546107fe90614939565b80601f016020809104026020016040519081016040528092919081815260200182805461082a90614939565b80156108775780601f1061084c57610100808354040283529160200191610877565b820191906000526020600020905b81548152906001019060200180831161085a57829003601f168201915b505050505081526020016002820154815260200160038201548152602001600482015481525050905090565b6060600080546108b290614939565b80601f01602080910402602001604051908101604052809291908181526020018280546108de90614939565b801561092b5780601f106109005761010080835404028352916020019161092b565b820191906000526020600020905b81548152906001019060200180831161090e57829003601f168201915b5050505050905090565b600061094082612529565b6004600083815260200190815260200160002060009054906101000a900473ffffffffffffffffffffffffffffffffffffffff169050919050565b600061098682610b24565b90508073ffffffffffffffffffffffffffffffffffffffff168373ffffffffffffffffffffffffffffffffffffffff16036109f6576040517f08c379a00000000000000000000000000000000000000000000000000000000081526004016109ed906149dc565b60405180910390fd5b8073ffffffffffffffffffffffffffffffffffffffff16610a15612574565b73ffffffffffffffffffffffffffffffffffffffff161480610a445750610a4381610a3e612574565b611e81565b5b610a83576040517f08c379a0000000000000000000000000000000000000000000000000000000008152600401610a7a90614a6e565b60405180910390fd5b610a8d838361257c565b505050565b610a9a612635565b80600d8190555050565b610ab5610aaf612574565b826126b3565b610af4576040517f08c379a0000000000000000000000000000000000000000000000000000000008152600401610aeb90614b00565b60405180910390fd5b610aff838383612748565b505050565b610b1f83838360405180602001604052806000815250611113565b505050565b600080610b3083612a41565b9050600073ffffffffffffffffffffffffffffffffffffffff168173ffffffffffffffffffffffffffffffffffffffff1603610ba1576040517f08c379a0000000000000000000000000000000000000000000000000000000008152600401610b9890614b6c565b60405180910390fd5b80915050919050565b60008073ffffffffffffffffffffffffffffffffffffffff168273ffffffffffffffffffffffffffffffffffffffff1603610c1a576040517f08c379a0000000000000000000000000000000000000000000000000000000008152600401610c1190614bfe565b60405180910390fd5b600360008373ffffffffffffffffffffffffffffffffffffffff1673ffffffffffffffffffffffffffffffffffffffff168152602001908152602001600020549050919050565b610c69612635565b610c736000612a7e565b565b60126020528060005260406000206000915090505481565b610c95612635565b80600e8190555050565b6000600660009054906101000a900473ffffffffffffffffffffffffffffffffffffffff16905090565b600e54341015610d0e576040517f08c379a0000000000000000000000000000000000000000000000000000000008152600401610d0590614c6a565b60405180910390fd5b60116000601260003373ffffffffffffffffffffffffffffffffffffffff1673ffffffffffffffffffffffffffffffffffffffff1681526020019081526020016000205481526020019081526020016000206005015460116000601260003373ffffffffffffffffffffffffffffffffffffffff1673ffffffffffffffffffffffffffffffffffffffff16815260200190815260200160002054815260200190815260200160002060040181905550565b606060018054610dce90614939565b80601f0160208091040260200160405190810160405280929190818152602001828054610dfa90614939565b8015610e475780601f10610e1c57610100808354040283529160200191610e47565b820191906000526020600020905b815481529060010190602001808311610e2a57829003601f168201915b5050505050905090565b60116020528060005260406000206000915090508060000154908060010160009054906101000a900473ffffffffffffffffffffffffffffffffffffffff1690806002018054610ea090614939565b80601f0160208091040260200160405190810160405280929190818152602001828054610ecc90614939565b8015610f195780601f10610eee57610100808354040283529160200191610f19565b820191906000526020600020905b815481529060010190602001808311610efc57829003601f168201915b505050505090806003018054610f2e90614939565b80601f0160208091040260200160405190810160405280929190818152602001828054610f5a90614939565b8015610fa75780601f10610f7c57610100808354040283529160200191610fa7565b820191906000526020600020905b815481529060010190602001808311610f8a57829003601f168201915b5050505050908060040154908060050154908060060154908060070154905088565b610fdb610fd4612574565b8383612b44565b5050565b6007806000018054610ff090614939565b80601f016020809104026020016040519081016040528092919081815260200182805461101c90614939565b80156110695780601f1061103e57610100808354040283529160200191611069565b820191906000526020600020905b81548152906001019060200180831161104c57829003601f168201915b50505050509080600101805461107e90614939565b80601f01602080910402602001604051908101604052809291908181526020018280546110aa90614939565b80156110f75780601f106110cc576101008083540402835291602001916110f7565b820191906000526020600020905b8154815290600101906020018083116110da57829003601f168201915b5050505050908060020154908060030154908060040154905085565b61112461111e612574565b836126b3565b611163576040517f08c379a000000000000000000000000000000000000000000000000000000000815260040161115a90614b00565b60405180910390fd5b61116f84848484612cb0565b50505050565b6060600f805480602002602001604051908101604052809291908181526020016000905b82821015611378578382906000526020600020906008020160405180610100016040529081600082015481526020016001820160009054906101000a900473ffffffffffffffffffffffffffffffffffffffff1673ffffffffffffffffffffffffffffffffffffffff1673ffffffffffffffffffffffffffffffffffffffff16815260200160028201805461122d90614939565b80601f016020809104026020016040519081016040528092919081815260200182805461125990614939565b80156112a65780601f1061127b576101008083540402835291602001916112a6565b820191906000526020600020905b81548152906001019060200180831161128957829003601f168201915b505050505081526020016003820180546112bf90614939565b80601f01602080910402602001604051908101604052809291908181526020018280546112eb90614939565b80156113385780601f1061130d57610100808354040283529160200191611338565b820191906000526020600020905b81548152906001019060200180831161131b57829003601f168201915b5050505050815260200160048201548152602001600582015481526020016006820154815260200160078201548152505081526020019060010190611199565b50505050905090565b606060006011600084815260200190815260200160002060405180610100016040529081600082015481526020016001820160009054906101000a900473ffffffffffffffffffffffffffffffffffffffff1673ffffffffffffffffffffffffffffffffffffffff1673ffffffffffffffffffffffffffffffffffffffff16815260200160028201805461141490614939565b80601f016020809104026020016040519081016040528092919081815260200182805461144090614939565b801561148d5780601f106114625761010080835404028352916020019161148d565b820191906000526020600020905b81548152906001019060200180831161147057829003601f168201915b505050505081526020016003820180546114a690614939565b80601f01602080910402602001604051908101604052809291908181526020018280546114d290614939565b801561151f5780601f106114f45761010080835404028352916020019161151f565b820191906000526020600020905b81548152906001019060200180831161150257829003601f168201915b50505050508152602001600482015481526020016005820154815260200160068201548152602001600782015481525050905060006115618260800151612d0c565b905060006115bf836040015161157687612d0c565b8560600151856115898860a00151612d0c565b6115968960c00151612d0c565b6040516020016115ab96959493929190614f4c565b604051602081830303815290604052612dda565b90506000816040516020016115d4919061503d565b604051602081830303815290604052905080945050505050919050565b6115f9613e8d565b6000601260003373ffffffffffffffffffffffffffffffffffffffff1673ffffffffffffffffffffffffffffffffffffffff1681526020019081526020016000205490506000811115611819576011600082815260200190815260200160002060405180610100016040529081600082015481526020016001820160009054906101000a900473ffffffffffffffffffffffffffffffffffffffff1673ffffffffffffffffffffffffffffffffffffffff1673ffffffffffffffffffffffffffffffffffffffff1681526020016002820180546116d590614939565b80601f016020809104026020016040519081016040528092919081815260200182805461170190614939565b801561174e5780601f106117235761010080835404028352916020019161174e565b820191906000526020600020905b81548152906001019060200180831161173157829003601f168201915b5050505050815260200160038201805461176790614939565b80601f016020809104026020016040519081016040528092919081815260200182805461179390614939565b80156117e05780601f106117b5576101008083540402835291602001916117e0565b820191906000526020600020905b8154815290600101906020018083116117c357829003601f168201915b50505050508152602001600482015481526020016005820154815260200160068201548152602001600782015481525050915050611827565b611821613e8d565b80925050505b90565b600060116000601260003373ffffffffffffffffffffffffffffffffffffffff1673ffffffffffffffffffffffffffffffffffffffff16815260200190815260200160002054815260200190815260200160002090506119386040518060600160405280603c8152602001615f27603c91398260020180546118ab90614939565b80601f01602080910402602001604051908101604052809291908181526020018280546118d790614939565b80156119245780601f106118f957610100808354040283529160200191611924565b820191906000526020600020905b81548152906001019060200180831161190757829003601f168201915b505050505083600401548460060154612f71565b611a106040518060400160405280601b81526020017f426f73732025732068617320257320485020616e6420257320414400000000008152506007600001805461198190614939565b80601f01602080910402602001604051908101604052809291908181526020018280546119ad90614939565b80156119fa5780601f106119cf576101008083540402835291602001916119fa565b820191906000526020600020905b8154815290600101906020018083116119dd57829003601f168201915b5050505050600760020154600760040154612f71565b6000816004015411611a57576040517f08c379a0000000000000000000000000000000000000000000000000000000008152600401611a4e906150d1565b60405180910390fd5b600060076002015411611a9f576040517f08c379a0000000000000000000000000000000000000000000000000000000008152600401611a9690615163565b60405180910390fd5b611bf86040518060400160405280601281526020017f2573207377696e67732061742025732e2e2e0000000000000000000000000000815250826002018054611ae790614939565b80601f0160208091040260200160405190810160405280929190818152602001828054611b1390614939565b8015611b605780601f10611b3557610100808354040283529160200191611b60565b820191906000526020600020905b815481529060010190602001808311611b4357829003601f168201915b505050505060076000018054611b7590614939565b80601f0160208091040260200160405190810160405280929190818152602001828054611ba190614939565b8015611bee5780601f10611bc357610100808354040283529160200191611bee565b820191906000526020600020905b815481529060010190602001808311611bd157829003601f168201915b5050505050613013565b6002611c04600a6130b2565b1115611c55578060060154600760020154611c1f91906151b2565b6007600201819055508060060154816007016000828254611c4091906151e6565b92505081905550611c503361310e565b611d21565b611d206040518060400160405280600b81526020017f2573206d6973736564210a000000000000000000000000000000000000000000815250826002018054611c9d90614939565b80601f0160208091040260200160405190810160405280929190818152602001828054611cc990614939565b8015611d165780601f10611ceb57610100808354040283529160200191611d16565b820191906000526020600020905b815481529060010190602001808311611cf957829003601f168201915b5050505050613171565b5b6003611d2d600a6130b2565b1115611d6d576007600401548160040154611d4891906151b2565b8160040181905550600081600401541015611d6857600081600401819055505b611e3a565b611e396040518060400160405280600b81526020017f2573206d6973736564210a00000000000000000000000000000000000000000081525060076000018054611db690614939565b80601f0160208091040260200160405190810160405280929190818152602001828054611de290614939565b8015611e2f5780601f10611e0457610100808354040283529160200191611e2f565b820191906000526020600020905b815481529060010190602001808311611e1257829003601f168201915b5050505050613171565b5b7f32bd565ee3f2cb5ddd742bbecd6048d3e9abe90b3827a40c2b72d232e71e3c9d336007600201548360040154604051611e769392919061521a565b60405180910390a150565b6000600560008473ffffffffffffffffffffffffffffffffffffffff1673ffffffffffffffffffffffffffffffffffffffff16815260200190815260200160002060008373ffffffffffffffffffffffffffffffffffffffff1673ffffffffffffffffffffffffffffffffffffffff16815260200190815260200160002060009054906101000a900460ff16905092915050565b611f1d612635565b600073ffffffffffffffffffffffffffffffffffffffff168173ffffffffffffffffffffffffffffffffffffffff1603611f8c576040517f08c379a0000000000000000000000000000000000000000000000000000000008152600401611f83906152c3565b60405180910390fd5b611f9581612a7e565b50565b600d54341015611fdd576040517f08c379a0000000000000000000000000000000000000000000000000000000008152600401611fd490614c6a565b60405180910390fd5b6000601260003373ffffffffffffffffffffffffffffffffffffffff1673ffffffffffffffffffffffffffffffffffffffff168152602001908152602001600020541461205f576040517f08c379a000000000000000000000000000000000000000000000000000000000815260040161205690615355565b60405180910390fd5b6040518061010001604052808281526020013373ffffffffffffffffffffffffffffffffffffffff168152602001600f83815481106120a1576120a0615375565b5b906000526020600020906008020160020180546120bd90614939565b80601f01602080910402602001604051908101604052809291908181526020018280546120e990614939565b80156121365780601f1061210b57610100808354040283529160200191612136565b820191906000526020600020905b81548152906001019060200180831161211957829003601f168201915b50505050508152602001600f838154811061215457612153615375565b5b9060005260206000209060080201600301805461217090614939565b80601f016020809104026020016040519081016040528092919081815260200182805461219c90614939565b80156121e95780601f106121be576101008083540402835291602001916121e9565b820191906000526020600020905b8154815290600101906020018083116121cc57829003601f168201915b50505050508152602001600f838154811061220757612206615375565b5b9060005260206000209060080201600401548152602001600f838154811061223257612231615375565b5b9060005260206000209060080201600501548152602001600f838154811061225d5761225c615375565b5b9060005260206000209060080201600601548152602001600081525060116000600c5481526020019081526020016000206000820151816000015560208201518160010160006101000a81548173ffffffffffffffffffffffffffffffffffffffff021916908373ffffffffffffffffffffffffffffffffffffffff16021790555060408201518160020190816122f49190615550565b50606082015181600301908161230a9190615550565b506080820151816004015560a0820151816005015560c0820151816006015560e0820151816007015590505061235b6040518060600160405280602e8152602001615ef9602e9139600c548361320d565b600c54601260003373ffffffffffffffffffffffffffffffffffffffff1673ffffffffffffffffffffffffffffffffffffffff16815260200190815260200160002081905550600c60008154809291906123b490615622565b91905055506123d1336001600c546123cc91906151b2565b6132ac565b7f4bc303fd457a97b4691b9af582ce71868a3d258638c8d4f8c60988a0f0bfb8cd336001600c5461240291906151b2565b836040516124129392919061521a565b60405180910390a150565b6124b984848484604051602401612437949392919061566a565b6040516020818303038152906040527f5d1a971a000000000000000000000000000000000000000000000000000000007bffffffffffffffffffffffffffffffffffffffffffffffffffffffff19166020820180517bffffffffffffffffffffffffffffffffffffffffffffffffffffffff83818316178352505050506132ca565b50505050565b60007f01ffc9a7000000000000000000000000000000000000000000000000000000007bffffffffffffffffffffffffffffffffffffffffffffffffffffffff1916827bffffffffffffffffffffffffffffffffffffffffffffffffffffffff1916149050919050565b612532816132f3565b612571576040517f08c379a000000000000000000000000000000000000000000000000000000000815260040161256890614b6c565b60405180910390fd5b50565b600033905090565b816004600083815260200190815260200160002060006101000a81548173ffffffffffffffffffffffffffffffffffffffff021916908373ffffffffffffffffffffffffffffffffffffffff160217905550808273ffffffffffffffffffffffffffffffffffffffff166125ef83610b24565b73ffffffffffffffffffffffffffffffffffffffff167f8c5be1e5ebec7d5bd14f71427d1e84f3dd0314c0f7b2291e5b200ac8c7c3b92560405160405180910390a45050565b61263d612574565b73ffffffffffffffffffffffffffffffffffffffff1661265b610c9f565b73ffffffffffffffffffffffffffffffffffffffff16146126b1576040517f08c379a00000000000000000000000000000000000000000000000000000000081526004016126a890615710565b60405180910390fd5b565b6000806126bf83610b24565b90508073ffffffffffffffffffffffffffffffffffffffff168473ffffffffffffffffffffffffffffffffffffffff16148061270157506127008185611e81565b5b8061273f57508373ffffffffffffffffffffffffffffffffffffffff1661272784610935565b73ffffffffffffffffffffffffffffffffffffffff16145b91505092915050565b8273ffffffffffffffffffffffffffffffffffffffff1661276882610b24565b73ffffffffffffffffffffffffffffffffffffffff16146127be576040517f08c379a00000000000000000000000000000000000000000000000000000000081526004016127b5906157a2565b60405180910390fd5b600073ffffffffffffffffffffffffffffffffffffffff168273ffffffffffffffffffffffffffffffffffffffff160361282d576040517f08c379a000000000000000000000000000000000000000000000000000000000815260040161282490615834565b60405180910390fd5b61283a8383836001613334565b8273ffffffffffffffffffffffffffffffffffffffff1661285a82610b24565b73ffffffffffffffffffffffffffffffffffffffff16146128b0576040517f08c379a00000000000000000000000000000000000000000000000000000000081526004016128a7906157a2565b60405180910390fd5b6004600082815260200190815260200160002060006101000a81549073ffffffffffffffffffffffffffffffffffffffff02191690556001600360008573ffffffffffffffffffffffffffffffffffffffff1673ffffffffffffffffffffffffffffffffffffffff168152602001908152602001600020600082825403925050819055506001600360008473ffffffffffffffffffffffffffffffffffffffff1673ffffffffffffffffffffffffffffffffffffffff16815260200190815260200160002060008282540192505081905550816002600083815260200190815260200160002060006101000a81548173ffffffffffffffffffffffffffffffffffffffff021916908373ffffffffffffffffffffffffffffffffffffffff160217905550808273ffffffffffffffffffffffffffffffffffffffff168473ffffffffffffffffffffffffffffffffffffffff167fddf252ad1be2c89b69c2b068fc378daa952ba7f163c4a11628f55a4df523b3ef60405160405180910390a4612a3c83838360016133b5565b505050565b60006002600083815260200190815260200160002060009054906101000a900473ffffffffffffffffffffffffffffffffffffffff169050919050565b6000600660009054906101000a900473ffffffffffffffffffffffffffffffffffffffff16905081600660006101000a81548173ffffffffffffffffffffffffffffffffffffffff021916908373ffffffffffffffffffffffffffffffffffffffff1602179055508173ffffffffffffffffffffffffffffffffffffffff168173ffffffffffffffffffffffffffffffffffffffff167f8be0079c531659141344cd1fd0a4f28419497f9722a3daafe3b4186f6b6457e060405160405180910390a35050565b8173ffffffffffffffffffffffffffffffffffffffff168373ffffffffffffffffffffffffffffffffffffffff1603612bb2576040517f08c379a0000000000000000000000000000000000000000000000000000000008152600401612ba9906158a0565b60405180910390fd5b80600560008573ffffffffffffffffffffffffffffffffffffffff1673ffffffffffffffffffffffffffffffffffffffff16815260200190815260200160002060008473ffffffffffffffffffffffffffffffffffffffff1673ffffffffffffffffffffffffffffffffffffffff16815260200190815260200160002060006101000a81548160ff0219169083151502179055508173ffffffffffffffffffffffffffffffffffffffff168373ffffffffffffffffffffffffffffffffffffffff167f17307eab39ab6107e8899845ad3d59bd9653f200f220920489ca2b5937696c3183604051612ca39190613f9c565b60405180910390a3505050565b612cbb848484612748565b612cc7848484846133bb565b612d06576040517f08c379a0000000000000000000000000000000000000000000000000000000008152600401612cfd90615932565b60405180910390fd5b50505050565b606060006001612d1b84613542565b01905060008167ffffffffffffffff811115612d3a57612d39614499565b5b6040519080825280601f01601f191660200182016040528015612d6c5781602001600182028036833780820191505090505b509050600082602001820190505b600115612dcf578080600190039150507f3031323334353637383961626364656600000000000000000000000000000000600a86061a8153600a8581612dc357612dc2615952565b5b04945060008503612d7a575b819350505050919050565b606060008251905060008103612e025760405180602001604052806000815250915050612f6c565b60006003600283612e1391906151e6565b612e1d9190615981565b6004612e2991906159b2565b90506000602082612e3a91906151e6565b67ffffffffffffffff811115612e5357612e52614499565b5b6040519080825280601f01601f191660200182016040528015612e855781602001600182028036833780820191505090505b5090506000604051806060016040528060408152602001615eb9604091399050600181016020830160005b86811015612f295760038101905062ffffff818a015116603f8160121c168401518060081b905060ff603f83600c1c1686015116810190508060081b905060ff603f8360061c1686015116810190508060081b905060ff603f831686015116810190508060e01b90508084526004840193505050612eb0565b506003860660018114612f435760028114612f5357612f5e565b613d3d60f01b6002830352612f5e565b603d60f81b60018303525b508484525050819450505050505b919050565b61300d84848484604051602401612f8b94939291906159f4565b6040516020818303038152906040527ff45d7d2c000000000000000000000000000000000000000000000000000000007bffffffffffffffffffffffffffffffffffffffffffffffffffffffff19166020820180517bffffffffffffffffffffffffffffffffffffffffffffffffffffffff83818316178352505050506132ca565b50505050565b6130ad83838360405160240161302b93929190615a47565b6040516020818303038152906040527f2ced7cef000000000000000000000000000000000000000000000000000000007bffffffffffffffffffffffffffffffffffffffffffffffffffffffff19166020820180517bffffffffffffffffffffffffffffffffffffffffffffffffffffffff83818316178352505050506132ca565b505050565b6000601060008154809291906130c790615622565b91905055508142336010546040516020016130e493929190615afc565b6040516020818303038152906040528051906020012060001c6131079190615b39565b9050919050565b60006007600201541161316e57600060076002018190555061312f81613695565b61316d6040518060400160405280601181526020017f54686520626f737320697320646561642100000000000000000000000000000081525061376c565b5b50565b6132098282604051602401613187929190615b6a565b6040516020818303038152906040527f4b5c4277000000000000000000000000000000000000000000000000000000007bffffffffffffffffffffffffffffffffffffffffffffffffffffffff19166020820180517bffffffffffffffffffffffffffffffffffffffffffffffffffffffff83818316178352505050506132ca565b5050565b6132a783838360405160240161322593929190615ba1565b6040516020818303038152906040527fca47c4eb000000000000000000000000000000000000000000000000000000007bffffffffffffffffffffffffffffffffffffffffffffffffffffffff19166020820180517bffffffffffffffffffffffffffffffffffffffffffffffffffffffff83818316178352505050506132ca565b505050565b6132c6828260405180602001604052806000815250613805565b5050565b60008151905060006a636f6e736f6c652e6c6f679050602083016000808483855afa5050505050565b60008073ffffffffffffffffffffffffffffffffffffffff1661331583612a41565b73ffffffffffffffffffffffffffffffffffffffff1614159050919050565b600073ffffffffffffffffffffffffffffffffffffffff168473ffffffffffffffffffffffffffffffffffffffff16146133a3576040517f08c379a000000000000000000000000000000000000000000000000000000000815260040161339a90615c2b565b60405180910390fd5b6133af84848484613860565b50505050565b50505050565b60006133dc8473ffffffffffffffffffffffffffffffffffffffff16613986565b15613535578373ffffffffffffffffffffffffffffffffffffffff1663150b7a02613405612574565b8786866040518563ffffffff1660e01b81526004016134279493929190615ca0565b6020604051808303816000875af192505050801561346357506040513d601f19601f820116820180604052508101906134609190615d01565b60015b6134e5573d8060008114613493576040519150601f19603f3d011682016040523d82523d6000602084013e613498565b606091505b5060008151036134dd576040517f08c379a00000000000000000000000000000000000000000000000000000000081526004016134d490615932565b60405180910390fd5b805181602001fd5b63150b7a0260e01b7bffffffffffffffffffffffffffffffffffffffffffffffffffffffff1916817bffffffffffffffffffffffffffffffffffffffffffffffffffffffff19161491505061353a565b600190505b949350505050565b600080600090507a184f03e93ff9f4daa797ed6e38ed64bf6a1f01000000000000000083106135a0577a184f03e93ff9f4daa797ed6e38ed64bf6a1f010000000000000000838161359657613595615952565b5b0492506040810190505b6d04ee2d6d415b85acef810000000083106135dd576d04ee2d6d415b85acef810000000083816135d3576135d2615952565b5b0492506020810190505b662386f26fc10000831061360c57662386f26fc10000838161360257613601615952565b5b0492506010810190505b6305f5e1008310613635576305f5e100838161362b5761362a615952565b5b0492506008810190505b612710831061365a5761271083816136505761364f615952565b5b0492506004810190505b6064831061367d576064838161367357613672615952565b5b0492506002810190505b600a831061368c576001810190505b80915050919050565b60008080600090505b600f8054905081101561375c5782600f82815481106136c0576136bf615375565b5b906000526020600020906008020160070154111561374957600f81815481106136ec576136eb615375565b5b9060005260206000209060080201600701549250600f818154811061371457613713615375565b5b906000526020600020906008020160010160009054906101000a900473ffffffffffffffffffffffffffffffffffffffff1691505b808061375490615622565b91505061369e565b5061376781846139a9565b505050565b613802816040516024016137809190614149565b6040516020818303038152906040527f41304fac000000000000000000000000000000000000000000000000000000007bffffffffffffffffffffffffffffffffffffffffffffffffffffffff19166020820180517bffffffffffffffffffffffffffffffffffffffffffffffffffffffff83818316178352505050506132ca565b50565b61380f8383613c41565b61381c60008484846133bb565b61385b576040517f08c379a000000000000000000000000000000000000000000000000000000000815260040161385290615932565b60405180910390fd5b505050565b600181111561398057600073ffffffffffffffffffffffffffffffffffffffff168473ffffffffffffffffffffffffffffffffffffffff16146138f45780600360008673ffffffffffffffffffffffffffffffffffffffff1673ffffffffffffffffffffffffffffffffffffffff16815260200190815260200160002060008282546138ec91906151b2565b925050819055505b600073ffffffffffffffffffffffffffffffffffffffff168373ffffffffffffffffffffffffffffffffffffffff161461397f5780600360008573ffffffffffffffffffffffffffffffffffffffff1673ffffffffffffffffffffffffffffffffffffffff168152602001908152602001600020600082825461397791906151e6565b925050819055505b5b50505050565b6000808273ffffffffffffffffffffffffffffffffffffffff163b119050919050565b600047905060008373ffffffffffffffffffffffffffffffffffffffff166002836139d49190615981565b6040516139e090615d5f565b60006040518083038185875af1925050503d8060008114613a1d576040519150601f19603f3d011682016040523d82523d6000602084013e613a22565b606091505b505090506000613a30610c9f565b73ffffffffffffffffffffffffffffffffffffffff16600a84613a539190615981565b604051613a5f90615d5f565b60006040518083038185875af1925050503d8060008114613a9c576040519150601f19603f3d011682016040523d82523d6000602084013e613aa1565b606091505b5050905060008473ffffffffffffffffffffffffffffffffffffffff166004600a86613acd9190615981565b613ad791906159b2565b604051613ae390615d5f565b60006040518083038185875af1925050503d8060008114613b20576040519150601f19603f3d011682016040523d82523d6000602084013e613b25565b606091505b50509050828015613b335750815b8015613b3c5750805b613b7b576040517f08c379a0000000000000000000000000000000000000000000000000000000008152600401613b7290615dc0565b60405180910390fd5b613c396040518060400160405280601881526020017f57696e6e65723a2025730a204c617374204869743a2025730000000000000000815250601260008973ffffffffffffffffffffffffffffffffffffffff1673ffffffffffffffffffffffffffffffffffffffff16815260200190815260200160002054601260008973ffffffffffffffffffffffffffffffffffffffff1673ffffffffffffffffffffffffffffffffffffffff1681526020019081526020016000205461320d565b505050505050565b600073ffffffffffffffffffffffffffffffffffffffff168273ffffffffffffffffffffffffffffffffffffffff1603613cb0576040517f08c379a0000000000000000000000000000000000000000000000000000000008152600401613ca790615e2c565b60405180910390fd5b613cb9816132f3565b15613cf9576040517f08c379a0000000000000000000000000000000000000000000000000000000008152600401613cf090615e98565b60405180910390fd5b613d07600083836001613334565b613d10816132f3565b15613d50576040517f08c379a0000000000000000000000000000000000000000000000000000000008152600401613d4790615e98565b60405180910390fd5b6001600360008473ffffffffffffffffffffffffffffffffffffffff1673ffffffffffffffffffffffffffffffffffffffff16815260200190815260200160002060008282540192505081905550816002600083815260200190815260200160002060006101000a81548173ffffffffffffffffffffffffffffffffffffffff021916908373ffffffffffffffffffffffffffffffffffffffff160217905550808273ffffffffffffffffffffffffffffffffffffffff16600073ffffffffffffffffffffffffffffffffffffffff167fddf252ad1be2c89b69c2b068fc378daa952ba7f163c4a11628f55a4df523b3ef60405160405180910390a4613e5a6000838360016133b5565b5050565b6040518060a0016040528060608152602001606081526020016000815260200160008152602001600081525090565b60405180610100016040528060008152602001600073ffffffffffffffffffffffffffffffffffffffff1681526020016060815260200160608152602001600081526020016000815260200160008152602001600081525090565b6000604051905090565b600080fd5b600080fd5b60007fffffffff0000000000000000000000000000000000000000000000000000000082169050919050565b613f3181613efc565b8114613f3c57600080fd5b50565b600081359050613f4e81613f28565b92915050565b600060208284031215613f6a57613f69613ef2565b5b6000613f7884828501613f3f565b91505092915050565b60008115159050919050565b613f9681613f81565b82525050565b6000602082019050613fb16000830184613f8d565b92915050565b600081519050919050565b600082825260208201905092915050565b60005b83811015613ff1578082015181840152602081019050613fd6565b60008484015250505050565b6000601f19601f8301169050919050565b600061401982613fb7565b6140238185613fc2565b9350614033818560208601613fd3565b61403c81613ffd565b840191505092915050565b6000819050919050565b61405a81614047565b82525050565b600060a083016000830151848203600086015261407d828261400e565b91505060208301518482036020860152614097828261400e565b91505060408301516140ac6040860182614051565b5060608301516140bf6060860182614051565b5060808301516140d26080860182614051565b508091505092915050565b600060208201905081810360008301526140f78184614060565b905092915050565b600082825260208201905092915050565b600061411b82613fb7565b61412581856140ff565b9350614135818560208601613fd3565b61413e81613ffd565b840191505092915050565b600060208201905081810360008301526141638184614110565b905092915050565b61417481614047565b811461417f57600080fd5b50565b6000813590506141918161416b565b92915050565b6000602082840312156141ad576141ac613ef2565b5b60006141bb84828501614182565b91505092915050565b600073ffffffffffffffffffffffffffffffffffffffff82169050919050565b60006141ef826141c4565b9050919050565b6141ff816141e4565b82525050565b600060208201905061421a60008301846141f6565b92915050565b614229816141e4565b811461423457600080fd5b50565b60008135905061424681614220565b92915050565b6000806040838503121561426357614262613ef2565b5b600061427185828601614237565b925050602061428285828601614182565b9150509250929050565b6000806000606084860312156142a5576142a4613ef2565b5b60006142b386828701614237565b93505060206142c486828701614237565b92505060406142d586828701614182565b9150509250925092565b6000602082840312156142f5576142f4613ef2565b5b600061430384828501614237565b91505092915050565b61431581614047565b82525050565b6000602082019050614330600083018461430c565b92915050565b60006101008201905061434c600083018b61430c565b614359602083018a6141f6565b818103604083015261436b8189614110565b9050818103606083015261437f8188614110565b905061438e608083018761430c565b61439b60a083018661430c565b6143a860c083018561430c565b6143b560e083018461430c565b9998505050505050505050565b6143cb81613f81565b81146143d657600080fd5b50565b6000813590506143e8816143c2565b92915050565b6000806040838503121561440557614404613ef2565b5b600061441385828601614237565b9250506020614424858286016143d9565b9150509250929050565b600060a08201905081810360008301526144488188614110565b9050818103602083015261445c8187614110565b905061446b604083018661430c565b614478606083018561430c565b614485608083018461430c565b9695505050505050565b600080fd5b600080fd5b7f4e487b7100000000000000000000000000000000000000000000000000000000600052604160045260246000fd5b6144d182613ffd565b810181811067ffffffffffffffff821117156144f0576144ef614499565b5b80604052505050565b6000614503613ee8565b905061450f82826144c8565b919050565b600067ffffffffffffffff82111561452f5761452e614499565b5b61453882613ffd565b9050602081019050919050565b82818337600083830152505050565b600061456761456284614514565b6144f9565b90508281526020810184848401111561458357614582614494565b5b61458e848285614545565b509392505050565b600082601f8301126145ab576145aa61448f565b5b81356145bb848260208601614554565b91505092915050565b600080600080608085870312156145de576145dd613ef2565b5b60006145ec87828801614237565b94505060206145fd87828801614237565b935050604061460e87828801614182565b925050606085013567ffffffffffffffff81111561462f5761462e613ef7565b5b61463b87828801614596565b91505092959194509250565b600081519050919050565b600082825260208201905092915050565b6000819050602082019050919050565b61467c816141e4565b82525050565b60006101008301600083015161469b6000860182614051565b5060208301516146ae6020860182614673565b50604083015184820360408601526146c6828261400e565b915050606083015184820360608601526146e0828261400e565b91505060808301516146f56080860182614051565b5060a083015161470860a0860182614051565b5060c083015161471b60c0860182614051565b5060e083015161472e60e0860182614051565b508091505092915050565b60006147458383614682565b905092915050565b6000602082019050919050565b600061476582614647565b61476f8185614652565b93508360208202850161478185614663565b8060005b858110156147bd578484038952815161479e8582614739565b94506147a98361474d565b925060208a01995050600181019050614785565b50829750879550505050505092915050565b600060208201905081810360008301526147e9818461475a565b905092915050565b60006101008301600083015161480a6000860182614051565b50602083015161481d6020860182614673565b5060408301518482036040860152614835828261400e565b9150506060830151848203606086015261484f828261400e565b91505060808301516148646080860182614051565b5060a083015161487760a0860182614051565b5060c083015161488a60c0860182614051565b5060e083015161489d60e0860182614051565b508091505092915050565b600060208201905081810360008301526148c281846147f1565b905092915050565b600080604083850312156148e1576148e0613ef2565b5b60006148ef85828601614237565b925050602061490085828601614237565b9150509250929050565b7f4e487b7100000000000000000000000000000000000000000000000000000000600052602260045260246000fd5b6000600282049050600182168061495157607f821691505b6020821081036149645761496361490a565b5b50919050565b7f4552433732313a20617070726f76616c20746f2063757272656e74206f776e6560008201527f7200000000000000000000000000000000000000000000000000000000000000602082015250565b60006149c66021836140ff565b91506149d18261496a565b604082019050919050565b600060208201905081810360008301526149f5816149b9565b9050919050565b7f4552433732313a20617070726f76652063616c6c6572206973206e6f7420746f60008201527f6b656e206f776e6572206f7220617070726f76656420666f7220616c6c000000602082015250565b6000614a58603d836140ff565b9150614a63826149fc565b604082019050919050565b60006020820190508181036000830152614a8781614a4b565b9050919050565b7f4552433732313a2063616c6c6572206973206e6f7420746f6b656e206f776e6560008201527f72206f7220617070726f76656400000000000000000000000000000000000000602082015250565b6000614aea602d836140ff565b9150614af582614a8e565b604082019050919050565b60006020820190508181036000830152614b1981614add565b9050919050565b7f4552433732313a20696e76616c696420746f6b656e2049440000000000000000600082015250565b6000614b566018836140ff565b9150614b6182614b20565b602082019050919050565b60006020820190508181036000830152614b8581614b49565b9050919050565b7f4552433732313a2061646472657373207a65726f206973206e6f74206120766160008201527f6c6964206f776e65720000000000000000000000000000000000000000000000602082015250565b6000614be86029836140ff565b9150614bf382614b8c565b604082019050919050565b60006020820190508181036000830152614c1781614bdb565b9050919050565b7f4e6f7420656e6f7567682076616c75652073656e740000000000000000000000600082015250565b6000614c546015836140ff565b9150614c5f82614c1e565b602082019050919050565b60006020820190508181036000830152614c8381614c47565b9050919050565b600081905092915050565b7f7b226e616d65223a202200000000000000000000000000000000000000000000600082015250565b6000614ccb600a83614c8a565b9150614cd682614c95565b600a82019050919050565b6000614cec82613fb7565b614cf68185614c8a565b9350614d06818560208601613fd3565b80840191505092915050565b7f202d2d204e465420233a20000000000000000000000000000000000000000000600082015250565b6000614d48600b83614c8a565b9150614d5382614d12565b600b82019050919050565b7f222c20226465736372697074696f6e223a2022416e2065706963204e4654222c60008201527f2022696d616765223a2022000000000000000000000000000000000000000000602082015250565b6000614dba602b83614c8a565b9150614dc582614d5e565b602b82019050919050565b7f222c202261747472696275746573223a205b207b202274726169745f7479706560008201527f223a20224865616c746820506f696e7473222c202276616c7565223a20000000602082015250565b6000614e2c603d83614c8a565b9150614e3782614dd0565b603d82019050919050565b7f2c20226d61785f76616c7565223a000000000000000000000000000000000000600082015250565b6000614e78600e83614c8a565b9150614e8382614e42565b600e82019050919050565b7f7d2c207b202274726169745f74797065223a202241747461636b2044616d616760008201527f65222c202276616c7565223a2000000000000000000000000000000000000000602082015250565b6000614eea602d83614c8a565b9150614ef582614e8e565b602d82019050919050565b7f7d5d7d0000000000000000000000000000000000000000000000000000000000600082015250565b6000614f36600383614c8a565b9150614f4182614f00565b600382019050919050565b6000614f5782614cbe565b9150614f638289614ce1565b9150614f6e82614d3b565b9150614f7a8288614ce1565b9150614f8582614dad565b9150614f918287614ce1565b9150614f9c82614e1f565b9150614fa88286614ce1565b9150614fb382614e6b565b9150614fbf8285614ce1565b9150614fca82614edd565b9150614fd68284614ce1565b9150614fe182614f29565b9150819050979650505050505050565b7f646174613a6170706c69636174696f6e2f6a736f6e3b6261736536342c000000600082015250565b6000615027601d83614c8a565b915061503282614ff1565b601d82019050919050565b60006150488261501a565b91506150548284614ce1565b915081905092915050565b7f4572726f723a20636861726163746572206d757374206861766520485020746f60008201527f2061747461636b20626f73732e00000000000000000000000000000000000000602082015250565b60006150bb602d836140ff565b91506150c68261505f565b604082019050919050565b600060208201905081810360008301526150ea816150ae565b9050919050565b7f4572726f723a20626f7373206d757374206861766520485020746f206174746160008201527f636b206368617261637465722e00000000000000000000000000000000000000602082015250565b600061514d602d836140ff565b9150615158826150f1565b604082019050919050565b6000602082019050818103600083015261517c81615140565b9050919050565b7f4e487b7100000000000000000000000000000000000000000000000000000000600052601160045260246000fd5b60006151bd82614047565b91506151c883614047565b92508282039050818111156151e0576151df615183565b5b92915050565b60006151f182614047565b91506151fc83614047565b925082820190508082111561521457615213615183565b5b92915050565b600060608201905061522f60008301866141f6565b61523c602083018561430c565b615249604083018461430c565b949350505050565b7f4f776e61626c653a206e6577206f776e657220697320746865207a65726f206160008201527f6464726573730000000000000000000000000000000000000000000000000000602082015250565b60006152ad6026836140ff565b91506152b882615251565b604082019050919050565b600060208201905081810360008301526152dc816152a0565b9050919050565b7f596f75206861766520616c7265616479206d696e74656420612063686172616360008201527f7465720000000000000000000000000000000000000000000000000000000000602082015250565b600061533f6023836140ff565b915061534a826152e3565b604082019050919050565b6000602082019050818103600083015261536e81615332565b9050919050565b7f4e487b7100000000000000000000000000000000000000000000000000000000600052603260045260246000fd5b60008190508160005260206000209050919050565b60006020601f8301049050919050565b600082821b905092915050565b6000600883026154067fffffffffffffffffffffffffffffffffffffffffffffffffffffffffffffffff826153c9565b61541086836153c9565b95508019841693508086168417925050509392505050565b6000819050919050565b600061544d61544861544384614047565b615428565b614047565b9050919050565b6000819050919050565b61546783615432565b61547b61547382615454565b8484546153d6565b825550505050565b600090565b615490615483565b61549b81848461545e565b505050565b5b818110156154bf576154b4600082615488565b6001810190506154a1565b5050565b601f821115615504576154d5816153a4565b6154de846153b9565b810160208510156154ed578190505b6155016154f9856153b9565b8301826154a0565b50505b505050565b600082821c905092915050565b600061552760001984600802615509565b1980831691505092915050565b60006155408383615516565b9150826002028217905092915050565b61555982613fb7565b67ffffffffffffffff81111561557257615571614499565b5b61557c8254614939565b6155878282856154c3565b600060209050601f8311600181146155ba57600084156155a8578287015190505b6155b28582615534565b86555061561a565b601f1984166155c8866153a4565b60005b828110156155f0578489015182556001820191506020850194506020810190506155cb565b8683101561560d5784890151615609601f891682615516565b8355505b6001600288020188555050505b505050505050565b600061562d82614047565b91507fffffffffffffffffffffffffffffffffffffffffffffffffffffffffffffffff820361565f5761565e615183565b5b600182019050919050565b600060808201905081810360008301526156848187614110565b905081810360208301526156988186614110565b90506156a7604083018561430c565b81810360608301526156b98184614110565b905095945050505050565b7f4f776e61626c653a2063616c6c6572206973206e6f7420746865206f776e6572600082015250565b60006156fa6020836140ff565b9150615705826156c4565b602082019050919050565b60006020820190508181036000830152615729816156ed565b9050919050565b7f4552433732313a207472616e736665722066726f6d20696e636f72726563742060008201527f6f776e6572000000000000000000000000000000000000000000000000000000602082015250565b600061578c6025836140ff565b915061579782615730565b604082019050919050565b600060208201905081810360008301526157bb8161577f565b9050919050565b7f4552433732313a207472616e7366657220746f20746865207a65726f2061646460008201527f7265737300000000000000000000000000000000000000000000000000000000602082015250565b600061581e6024836140ff565b9150615829826157c2565b604082019050919050565b6000602082019050818103600083015261584d81615811565b9050919050565b7f4552433732313a20617070726f766520746f2063616c6c657200000000000000600082015250565b600061588a6019836140ff565b915061589582615854565b602082019050919050565b600060208201905081810360008301526158b98161587d565b9050919050565b7f4552433732313a207472616e7366657220746f206e6f6e20455243373231526560008201527f63656976657220696d706c656d656e7465720000000000000000000000000000602082015250565b600061591c6032836140ff565b9150615927826158c0565b604082019050919050565b6000602082019050818103600083015261594b8161590f565b9050919050565b7f4e487b7100000000000000000000000000000000000000000000000000000000600052601260045260246000fd5b600061598c82614047565b915061599783614047565b9250826159a7576159a6615952565b5b828204905092915050565b60006159bd82614047565b91506159c883614047565b92508282026159d681614047565b915082820484148315176159ed576159ec615183565b5b5092915050565b60006080820190508181036000830152615a0e8187614110565b90508181036020830152615a228186614110565b9050615a31604083018561430c565b615a3e606083018461430c565b95945050505050565b60006060820190508181036000830152615a618186614110565b90508181036020830152615a758185614110565b90508181036040830152615a898184614110565b9050949350505050565b6000819050919050565b615aae615aa982614047565b615a93565b82525050565b60008160601b9050919050565b6000615acc82615ab4565b9050919050565b6000615ade82615ac1565b9050919050565b615af6615af1826141e4565b615ad3565b82525050565b6000615b088286615a9d565b602082019150615b188285615ae5565b601482019150615b288284615a9d565b602082019150819050949350505050565b6000615b4482614047565b9150615b4f83614047565b925082615b5f57615b5e615952565b5b828206905092915050565b60006040820190508181036000830152615b848185614110565b90508181036020830152615b988184614110565b90509392505050565b60006060820190508181036000830152615bbb8186614110565b9050615bca602083018561430c565b615bd7604083018461430c565b949350505050565b7f4572723a20746f6b656e207472616e7366657220697320424c4f434b45440000600082015250565b6000615c15601e836140ff565b9150615c2082615bdf565b602082019050919050565b60006020820190508181036000830152615c4481615c08565b9050919050565b600081519050919050565b600082825260208201905092915050565b6000615c7282615c4b565b615c7c8185615c56565b9350615c8c818560208601613fd3565b615c9581613ffd565b840191505092915050565b6000608082019050615cb560008301876141f6565b615cc260208301866141f6565b615ccf604083018561430c565b8181036060830152615ce18184615c67565b905095945050505050565b600081519050615cfb81613f28565b92915050565b600060208284031215615d1757615d16613ef2565b5b6000615d2584828501615cec565b91505092915050565b600081905092915050565b50565b6000615d49600083615d2e565b9150615d5482615d39565b600082019050919050565b6000615d6a82615d3c565b9150819050919050565b7f5472616e73666572206661696c65640000000000000000000000000000000000600082015250565b6000615daa600f836140ff565b9150615db582615d74565b602082019050919050565b60006020820190508181036000830152615dd981615d9d565b9050919050565b7f4552433732313a206d696e7420746f20746865207a65726f2061646472657373600082015250565b6000615e166020836140ff565b9150615e2182615de0565b602082019050919050565b60006020820190508181036000830152615e4581615e09565b9050919050565b7f4552433732313a20746f6b656e20616c7265616479206d696e74656400000000600082015250565b6000615e82601c836140ff565b9150615e8d82615e4c565b602082019050919050565b60006020820190508181036000830152615eb181615e75565b905091905056fe4142434445464748494a4b4c4d4e4f505152535455565758595a6162636465666768696a6b6c6d6e6f707172737475767778797a303132333435363738392b2f4d696e746564204e465420772f20746f6b656e496420257320616e6420636861726163746572496e6465782025730a506c6179657220772f206368617261637465722025732061626f757420746f2061747461636b2e2048617320257320485020616e64202573204144a2646970667358221220501751d6bb17f06a375f66320be4e4cd20a31d190b669b0a9b5ddbbd5e3f4ed964736f6c63430008110033446f6e6520696e697469616c697a696e6720257320772f2048502025732c20696d67202573446f6e6520696e697469616c697a696e6720626f737320257320772f2048502025732c20696d67202573",
  "linkReferences": {},
  "deployedLinkReferences": {}
}