{
  "_format": "hh-sol-artifact-1",
  "contractName": "GameEncanto",
  "sourceName": "contracts/MyEpicGame.sol",
  "abi": [
    {
      "inputs": [
        {
          "internalType": "string[]",
          "name": "characterNames",
          "type": "string[]"
        },
        {
          "internalType": "string[]",
          "name": "characterImageURIs",
          "type": "string[]"
        },
        {
          "internalType": "uint256[]",
          "name": "characterHp",
          "type": "uint256[]"
        },
        {
          "internalType": "uint256[]",
          "name": "characterAttackDmg",
          "type": "uint256[]"
        },
        {
          "internalType": "string",
          "name": "bossName",
          "type": "string"
        },
        {
          "internalType": "string",
          "name": "bossImageURI",
          "type": "string"
        },
        {
          "internalType": "uint256",
          "name": "bossHp",
          "type": "uint256"
        },
        {
          "internalType": "uint256",
          "name": "bossAttackDamage",
          "type": "uint256"
        }
      ],
      "stateMutability": "nonpayable",
      "type": "constructor"
    },
    {
      "anonymous": false,
      "inputs": [
        {
          "indexed": true,
          "internalType": "address",
          "name": "owner",
          "type": "address"
        },
        {
          "indexed": true,
          "internalType": "address",
          "name": "approved",
          "type": "address"
        },
        {
          "indexed": true,
          "internalType": "uint256",
          "name": "tokenId",
          "type": "uint256"
        }
      ],
      "name": "Approval",
      "type": "event"
    },
    {
      "anonymous": false,
      "inputs": [
        {
          "indexed": true,
          "internalType": "address",
          "name": "owner",
          "type": "address"
        },
        {
          "indexed": true,
          "internalType": "address",
          "name": "operator",
          "type": "address"
        },
        {
          "indexed": false,
          "internalType": "bool",
          "name": "approved",
          "type": "bool"
        }
      ],
      "name": "ApprovalForAll",
      "type": "event"
    },
    {
      "anonymous": false,
      "inputs": [
        {
          "indexed": false,
          "internalType": "address",
          "name": "sender",
          "type": "address"
        },
        {
          "indexed": false,
          "internalType": "uint256",
          "name": "newBossHp",
          "type": "uint256"
        },
        {
          "indexed": false,
          "internalType": "uint256",
          "name": "newPlayerHp",
          "type": "uint256"
        }
      ],
      "name": "AttackComplete",
      "type": "event"
    },
    {
      "anonymous": false,
      "inputs": [
        {
          "indexed": false,
          "internalType": "address",
          "name": "sender",
          "type": "address"
        },
        {
          "indexed": false,
          "internalType": "uint256",
          "name": "tokenId",
          "type": "uint256"
        },
        {
          "indexed": false,
          "internalType": "uint256",
          "name": "characterIndex",
          "type": "uint256"
        }
      ],
      "name": "CharacterNFTMinted",
      "type": "event"
    },
    {
      "anonymous": false,
      "inputs": [
        {
          "indexed": true,
          "internalType": "address",
          "name": "previousOwner",
          "type": "address"
        },
        {
          "indexed": true,
          "internalType": "address",
          "name": "newOwner",
          "type": "address"
        }
      ],
      "name": "OwnershipTransferred",
      "type": "event"
    },
    {
      "anonymous": false,
      "inputs": [
        {
          "indexed": true,
          "internalType": "address",
          "name": "from",
          "type": "address"
        },
        {
          "indexed": true,
          "internalType": "address",
          "name": "to",
          "type": "address"
        },
        {
          "indexed": true,
          "internalType": "uint256",
          "name": "tokenId",
          "type": "uint256"
        }
      ],
      "name": "Transfer",
      "type": "event"
    },
    {
      "stateMutability": "payable",
      "type": "fallback"
    },
    {
      "inputs": [
        {
          "internalType": "address",
          "name": "to",
          "type": "address"
        },
        {
          "internalType": "uint256",
          "name": "tokenId",
          "type": "uint256"
        }
      ],
      "name": "approve",
      "outputs": [],
      "stateMutability": "nonpayable",
      "type": "function"
    },
    {
      "inputs": [],
      "name": "attackBoss",
      "outputs": [],
      "stateMutability": "nonpayable",
      "type": "function"
    },
    {
      "inputs": [
        {
          "internalType": "address",
          "name": "owner",
          "type": "address"
        }
      ],
      "name": "balanceOf",
      "outputs": [
        {
          "internalType": "uint256",
          "name": "",
          "type": "uint256"
        }
      ],
      "stateMutability": "view",
      "type": "function"
    },
    {
      "inputs": [],
      "name": "bigBoss",
      "outputs": [
        {
          "internalType": "string",
          "name": "name",
          "type": "string"
        },
        {
          "internalType": "string",
          "name": "imageURI",
          "type": "string"
        },
        {
          "internalType": "uint256",
          "name": "hp",
          "type": "uint256"
        },
        {
          "internalType": "uint256",
          "name": "maxHp",
          "type": "uint256"
        },
        {
          "internalType": "uint256",
          "name": "attackDamage",
          "type": "uint256"
        }
      ],
      "stateMutability": "view",
      "type": "function"
    },
    {
      "inputs": [],
      "name": "checkIfUserHasNFT",
      "outputs": [
        {
          "components": [
            {
              "internalType": "uint256",
              "name": "characterIndex",
              "type": "uint256"
            },
            {
              "internalType": "address",
              "name": "owner",
              "type": "address"
            },
            {
              "internalType": "string",
              "name": "name",
              "type": "string"
            },
            {
              "internalType": "string",
              "name": "imageURI",
              "type": "string"
            },
            {
              "internalType": "uint256",
              "name": "hp",
              "type": "uint256"
            },
            {
              "internalType": "uint256",
              "name": "maxHp",
              "type": "uint256"
            },
            {
              "internalType": "uint256",
              "name": "attackDamage",
              "type": "uint256"
            },
            {
              "internalType": "uint256",
              "name": "damageGenerated",
              "type": "uint256"
            }
          ],
          "internalType": "struct GameEncanto.CharacterAttributes",
          "name": "",
          "type": "tuple"
        }
      ],
      "stateMutability": "view",
      "type": "function"
    },
    {
      "inputs": [],
      "name": "getAllDefaultCharacters",
      "outputs": [
        {
          "components": [
            {
              "internalType": "uint256",
              "name": "characterIndex",
              "type": "uint256"
            },
            {
              "internalType": "address",
              "name": "owner",
              "type": "address"
            },
            {
              "internalType": "string",
              "name": "name",
              "type": "string"
            },
            {
              "internalType": "string",
              "name": "imageURI",
              "type": "string"
            },
            {
              "internalType": "uint256",
              "name": "hp",
              "type": "uint256"
            },
            {
              "internalType": "uint256",
              "name": "maxHp",
              "type": "uint256"
            },
            {
              "internalType": "uint256",
              "name": "attackDamage",
              "type": "uint256"
            },
            {
              "internalType": "uint256",
              "name": "damageGenerated",
              "type": "uint256"
            }
          ],
          "internalType": "struct GameEncanto.CharacterAttributes[]",
          "name": "",
          "type": "tuple[]"
        }
      ],
      "stateMutability": "view",
      "type": "function"
    },
    {
      "inputs": [
        {
          "internalType": "uint256",
          "name": "tokenId",
          "type": "uint256"
        }
      ],
      "name": "getApproved",
      "outputs": [
        {
          "internalType": "address",
          "name": "",
          "type": "address"
        }
      ],
      "stateMutability": "view",
      "type": "function"
    },
    {
      "inputs": [],
      "name": "getBigBoss",
      "outputs": [
        {
          "components": [
            {
              "internalType": "string",
              "name": "name",
              "type": "string"
            },
            {
              "internalType": "string",
              "name": "imageURI",
              "type": "string"
            },
            {
              "internalType": "uint256",
              "name": "hp",
              "type": "uint256"
            },
            {
              "internalType": "uint256",
              "name": "maxHp",
              "type": "uint256"
            },
            {
              "internalType": "uint256",
              "name": "attackDamage",
              "type": "uint256"
            }
          ],
          "internalType": "struct GameEncanto.BigBoss",
          "name": "",
          "type": "tuple"
        }
      ],
      "stateMutability": "view",
      "type": "function"
    },
    {
      "inputs": [
        {
          "internalType": "address",
          "name": "owner",
          "type": "address"
        },
        {
          "internalType": "address",
          "name": "operator",
          "type": "address"
        }
      ],
      "name": "isApprovedForAll",
      "outputs": [
        {
          "internalType": "bool",
          "name": "",
          "type": "bool"
        }
      ],
      "stateMutability": "view",
      "type": "function"
    },
    {
      "inputs": [
        {
          "internalType": "uint256",
          "name": "_characterIndex",
          "type": "uint256"
        }
      ],
      "name": "mintCharacterNFT",
      "outputs": [],
      "stateMutability": "payable",
      "type": "function"
    },
    {
      "inputs": [],
      "name": "name",
      "outputs": [
        {
          "internalType": "string",
          "name": "",
          "type": "string"
        }
      ],
      "stateMutability": "view",
      "type": "function"
    },
    {
      "inputs": [
        {
          "internalType": "uint256",
          "name": "",
          "type": "uint256"
        }
      ],
      "name": "nftHolderAttributes",
      "outputs": [
        {
          "internalType": "uint256",
          "name": "characterIndex",
          "type": "uint256"
        },
        {
          "internalType": "address",
          "name": "owner",
          "type": "address"
        },
        {
          "internalType": "string",
          "name": "name",
          "type": "string"
        },
        {
          "internalType": "string",
          "name": "imageURI",
          "type": "string"
        },
        {
          "internalType": "uint256",
          "name": "hp",
          "type": "uint256"
        },
        {
          "internalType": "uint256",
          "name": "maxHp",
          "type": "uint256"
        },
        {
          "internalType": "uint256",
          "name": "attackDamage",
          "type": "uint256"
        },
        {
          "internalType": "uint256",
          "name": "damageGenerated",
          "type": "uint256"
        }
      ],
      "stateMutability": "view",
      "type": "function"
    },
    {
      "inputs": [
        {
          "internalType": "address",
          "name": "",
          "type": "address"
        }
      ],
      "name": "nftHolders",
      "outputs": [
        {
          "internalType": "uint256",
          "name": "",
          "type": "uint256"
        }
      ],
      "stateMutability": "view",
      "type": "function"
    },
    {
      "inputs": [],
      "name": "owner",
      "outputs": [
        {
          "internalType": "address",
          "name": "",
          "type": "address"
        }
      ],
      "stateMutability": "view",
      "type": "function"
    },
    {
      "inputs": [
        {
          "internalType": "uint256",
          "name": "tokenId",
          "type": "uint256"
        }
      ],
      "name": "ownerOf",
      "outputs": [
        {
          "internalType": "address",
          "name": "",
          "type": "address"
        }
      ],
      "stateMutability": "view",
      "type": "function"
    },
    {
      "inputs": [],
      "name": "renounceOwnership",
      "outputs": [],
      "stateMutability": "nonpayable",
      "type": "function"
    },
    {
      "inputs": [],
      "name": "revive",
      "outputs": [],
      "stateMutability": "payable",
      "type": "function"
    },
    {
      "inputs": [
        {
          "internalType": "address",
          "name": "from",
          "type": "address"
        },
        {
          "internalType": "address",
          "name": "to",
          "type": "address"
        },
        {
          "internalType": "uint256",
          "name": "tokenId",
          "type": "uint256"
        }
      ],
      "name": "safeTransferFrom",
      "outputs": [],
      "stateMutability": "nonpayable",
      "type": "function"
    },
    {
      "inputs": [
        {
          "internalType": "address",
          "name": "from",
          "type": "address"
        },
        {
          "internalType": "address",
          "name": "to",
          "type": "address"
        },
        {
          "internalType": "uint256",
          "name": "tokenId",
          "type": "uint256"
        },
        {
          "internalType": "bytes",
          "name": "data",
          "type": "bytes"
        }
      ],
      "name": "safeTransferFrom",
      "outputs": [],
      "stateMutability": "nonpayable",
      "type": "function"
    },
    {
      "inputs": [
        {
          "internalType": "address",
          "name": "operator",
          "type": "address"
        },
        {
          "internalType": "bool",
          "name": "approved",
          "type": "bool"
        }
      ],
      "name": "setApprovalForAll",
      "outputs": [],
      "stateMutability": "nonpayable",
      "type": "function"
    },
    {
      "inputs": [
        {
          "internalType": "uint256",
          "name": "_mintCost",
          "type": "uint256"
        }
      ],
      "name": "setUpMintCost",
      "outputs": [],
      "stateMutability": "nonpayable",
      "type": "function"
    },
    {
      "inputs": [
        {
          "internalType": "uint256",
          "name": "_reviveCost",
          "type": "uint256"
        }
      ],
      "name": "setUpReviveCost",
      "outputs": [],
      "stateMutability": "nonpayable",
      "type": "function"
    },
    {
      "inputs": [
        {
          "internalType": "bytes4",
          "name": "interfaceId",
          "type": "bytes4"
        }
      ],
      "name": "supportsInterface",
      "outputs": [
        {
          "internalType": "bool",
          "name": "",
          "type": "bool"
        }
      ],
      "stateMutability": "view",
      "type": "function"
    },
    {
      "inputs": [],
      "name": "symbol",
      "outputs": [
        {
          "internalType": "string",
          "name": "",
          "type": "string"
        }
      ],
      "stateMutability": "view",
      "type": "function"
    },
    {
      "inputs": [
        {
          "internalType": "uint256",
          "name": "_tokenId",
          "type": "uint256"
        }
      ],
      "name": "tokenURI",
      "outputs": [
        {
          "internalType": "string",
          "name": "",
          "type": "string"
        }
      ],
      "stateMutability": "view",
      "type": "function"
    },
    {
      "inputs": [
        {
          "internalType": "address",
          "name": "from",
          "type": "address"
        },
        {
          "internalType": "address",
          "name": "to",
          "type": "address"
        },
        {
          "internalType": "uint256",
          "name": "tokenId",
          "type": "uint256"
        }
      ],
      "name": "transferFrom",
      "outputs": [],
      "stateMutability": "nonpayable",
      "type": "function"
    },
    {
      "inputs": [
        {
          "internalType": "address",
          "name": "newOwner",
          "type": "address"
        }
      ],
      "name": "transferOwnership",
      "outputs": [],
      "stateMutability": "nonpayable",
      "type": "function"
    },
    {
      "stateMutability": "payable",
      "type": "receive"
    }
  ],
  "bytecode": "0x608060405260006010553480156200001657600080fd5b506040516200722f3803806200722f83398181016040528101906200003c919062000c41565b6040518060400160405280600881526020017f456e2d63616e746f0000000000000000000000000000000000000000000000008152506040518060400160405280600481526020017f452d4354000000000000000000000000000000000000000000000000000000008152508160009081620000b9919062001005565b508060019081620000cb919062001005565b505050620000ee620000e2620006fe60201b60201c565b6200070660201b60201c565b6040518060a0016040528085815260200184815260200183815260200183815260200182815250600760008201518160000190816200012e919062001005565b50602082015181600101908162000146919062001005565b50604082015181600201556060820151816003015560808201518160040155905050620002c96040518060600160405280602a815260200162007205602a913960076000018054620001989062000dfe565b80601f0160208091040260200160405190810160405280929190818152602001828054620001c69062000dfe565b8015620002175780601f10620001eb5761010080835404028352916020019162000217565b820191906000526020600020905b815481529060010190602001808311620001f957829003601f168201915b505050505060076002015460076001018054620002349062000dfe565b80601f0160208091040260200160405190810160405280929190818152602001828054620002629062000dfe565b8015620002b35780601f106200028757610100808354040283529160200191620002b3565b820191906000526020600020905b8154815290600101906020018083116200029557829003601f168201915b5050505050620007cc60201b620023f91760201c565b60005b8851811015620006d557600f604051806101000160405280838152602001600073ffffffffffffffffffffffffffffffffffffffff1681526020018b84815181106200031d576200031c620010ec565b5b602002602001015181526020018a848151811062000340576200033f620010ec565b5b60200260200101518152602001898481518110620003635762000362620010ec565b5b60200260200101518152602001898481518110620003865762000385620010ec565b5b60200260200101518152602001888481518110620003a957620003a8620010ec565b5b60200260200101518152602001600081525090806001815401808255809150506001900390600052602060002090600802016000909190919091506000820151816000015560208201518160010160006101000a81548173ffffffffffffffffffffffffffffffffffffffff021916908373ffffffffffffffffffffffffffffffffffffffff16021790555060408201518160020190816200044c919062001005565b50606082015181600301908162000464919062001005565b506080820151816004015560a0820151816005015560c0820151816006015560e0820151816007015550506000600f8281548110620004a857620004a7620010ec565b5b906000526020600020906008020160405180610100016040529081600082015481526020016001820160009054906101000a900473ffffffffffffffffffffffffffffffffffffffff1673ffffffffffffffffffffffffffffffffffffffff1673ffffffffffffffffffffffffffffffffffffffff168152602001600282018054620005349062000dfe565b80601f0160208091040260200160405190810160405280929190818152602001828054620005629062000dfe565b8015620005b35780601f106200058757610100808354040283529160200191620005b3565b820191906000526020600020905b8154815290600101906020018083116200059557829003601f168201915b50505050508152602001600382018054620005ce9062000dfe565b80601f0160208091040260200160405190810160405280929190818152602001828054620005fc9062000dfe565b80156200064d5780601f1062000621576101008083540402835291602001916200064d565b820191906000526020600020905b8154815290600101906020018083116200062f57829003601f168201915b505050505081526020016004820154815260200160058201548152602001600682015481526020016007820154815250509050620006be604051806060016040528060258152602001620071e060259139826040015183608001518460600151620007cc60201b620023f91760201c565b508080620006cc906200114a565b915050620002cc565b50600c6000815480929190620006eb906200114a565b919050555050505050505050506200125c565b600033905090565b6000600660009054906101000a900473ffffffffffffffffffffffffffffffffffffffff16905081600660006101000a81548173ffffffffffffffffffffffffffffffffffffffff021916908373ffffffffffffffffffffffffffffffffffffffff1602179055508173ffffffffffffffffffffffffffffffffffffffff168173ffffffffffffffffffffffffffffffffffffffff167f8be0079c531659141344cd1fd0a4f28419497f9722a3daafe3b4186f6b6457e060405160405180910390a35050565b6200087284848484604051602401620007e99493929190620011fa565b6040516020818303038152906040527f5d1a971a000000000000000000000000000000000000000000000000000000007bffffffffffffffffffffffffffffffffffffffffffffffffffffffff19166020820180517bffffffffffffffffffffffffffffffffffffffffffffffffffffffff83818316178352505050506200087860201b60201c565b50505050565b60008151905060006a636f6e736f6c652e6c6f679050602083016000808483855afa5050505050565b6000604051905090565b600080fd5b600080fd5b600080fd5b6000601f19601f8301169050919050565b7f4e487b7100000000000000000000000000000000000000000000000000000000600052604160045260246000fd5b6200090582620008ba565b810181811067ffffffffffffffff82111715620009275762000926620008cb565b5b80604052505050565b60006200093c620008a1565b90506200094a8282620008fa565b919050565b600067ffffffffffffffff8211156200096d576200096c620008cb565b5b602082029050602081019050919050565b600080fd5b600080fd5b600067ffffffffffffffff821115620009a657620009a5620008cb565b5b620009b182620008ba565b9050602081019050919050565b60005b83811015620009de578082015181840152602081019050620009c1565b60008484015250505050565b600062000a01620009fb8462000988565b62000930565b90508281526020810184848401111562000a205762000a1f62000983565b5b62000a2d848285620009be565b509392505050565b600082601f83011262000a4d5762000a4c620008b5565b5b815162000a5f848260208601620009ea565b91505092915050565b600062000a7f62000a79846200094f565b62000930565b9050808382526020820190506020840283018581111562000aa55762000aa46200097e565b5b835b8181101562000af357805167ffffffffffffffff81111562000ace5762000acd620008b5565b5b80860162000add898262000a35565b8552602085019450505060208101905062000aa7565b5050509392505050565b600082601f83011262000b155762000b14620008b5565b5b815162000b2784826020860162000a68565b91505092915050565b600067ffffffffffffffff82111562000b4e5762000b4d620008cb565b5b602082029050602081019050919050565b6000819050919050565b62000b748162000b5f565b811462000b8057600080fd5b50565b60008151905062000b948162000b69565b92915050565b600062000bb162000bab8462000b30565b62000930565b9050808382526020820190506020840283018581111562000bd75762000bd66200097e565b5b835b8181101562000c04578062000bef888262000b83565b84526020840193505060208101905062000bd9565b5050509392505050565b600082601f83011262000c265762000c25620008b5565b5b815162000c3884826020860162000b9a565b91505092915050565b600080600080600080600080610100898b03121562000c655762000c64620008ab565b5b600089015167ffffffffffffffff81111562000c865762000c85620008b0565b5b62000c948b828c0162000afd565b985050602089015167ffffffffffffffff81111562000cb85762000cb7620008b0565b5b62000cc68b828c0162000afd565b975050604089015167ffffffffffffffff81111562000cea5762000ce9620008b0565b5b62000cf88b828c0162000c0e565b965050606089015167ffffffffffffffff81111562000d1c5762000d1b620008b0565b5b62000d2a8b828c0162000c0e565b955050608089015167ffffffffffffffff81111562000d4e5762000d4d620008b0565b5b62000d5c8b828c0162000a35565b94505060a089015167ffffffffffffffff81111562000d805762000d7f620008b0565b5b62000d8e8b828c0162000a35565b93505060c062000da18b828c0162000b83565b92505060e062000db48b828c0162000b83565b9150509295985092959890939650565b600081519050919050565b7f4e487b7100000000000000000000000000000000000000000000000000000000600052602260045260246000fd5b6000600282049050600182168062000e1757607f821691505b60208210810362000e2d5762000e2c62000dcf565b5b50919050565b60008190508160005260206000209050919050565b60006020601f8301049050919050565b600082821b905092915050565b60006008830262000e977fffffffffffffffffffffffffffffffffffffffffffffffffffffffffffffffff8262000e58565b62000ea3868362000e58565b95508019841693508086168417925050509392505050565b6000819050919050565b600062000ee662000ee062000eda8462000b5f565b62000ebb565b62000b5f565b9050919050565b6000819050919050565b62000f028362000ec5565b62000f1a62000f118262000eed565b84845462000e65565b825550505050565b600090565b62000f3162000f22565b62000f3e81848462000ef7565b505050565b5b8181101562000f665762000f5a60008262000f27565b60018101905062000f44565b5050565b601f82111562000fb55762000f7f8162000e33565b62000f8a8462000e48565b8101602085101562000f9a578190505b62000fb262000fa98562000e48565b83018262000f43565b50505b505050565b600082821c905092915050565b600062000fda6000198460080262000fba565b1980831691505092915050565b600062000ff5838362000fc7565b9150826002028217905092915050565b620010108262000dc4565b67ffffffffffffffff8111156200102c576200102b620008cb565b5b62001038825462000dfe565b6200104582828562000f6a565b600060209050601f8311600181146200107d576000841562001068578287015190505b62001074858262000fe7565b865550620010e4565b601f1984166200108d8662000e33565b60005b82811015620010b75784890151825560018201915060208501945060208101905062001090565b86831015620010d75784890151620010d3601f89168262000fc7565b8355505b6001600288020188555050505b505050505050565b7f4e487b7100000000000000000000000000000000000000000000000000000000600052603260045260246000fd5b7f4e487b7100000000000000000000000000000000000000000000000000000000600052601160045260246000fd5b6000620011578262000b5f565b91507fffffffffffffffffffffffffffffffffffffffffffffffffffffffffffffffff82036200118c576200118b6200111b565b5b600182019050919050565b600082825260208201905092915050565b6000620011b58262000dc4565b620011c1818562001197565b9350620011d3818560208601620009be565b620011de81620008ba565b840191505092915050565b620011f48162000b5f565b82525050565b60006080820190508181036000830152620012168187620011a8565b905081810360208301526200122c8186620011a8565b90506200123d6040830185620011e9565b8181036060830152620012518184620011a8565b905095945050505050565b615f74806200126c6000396000f3fe6080604052600436106101a05760003560e01c80638da5cb5b116100ec578063b953084e1161008a578063d4f24c5b11610064578063d4f24c5b146105cc578063e985e9c5146105e3578063f2fde38b14610620578063f8b81ef714610649576101a7565b8063b953084e14610539578063c87b56dd14610564578063c8cf27f4146105a1576101a7565b806398da4c95116100c657806398da4c9514610474578063a22cb465146104b8578063a9c32679146104e1578063b88d4fde14610510576101a7565b80638da5cb5b1461041457806395851a651461043f57806395d89b4114610449576101a7565b806323b872dd1161015957806370a082311161013357806370a082311461035a578063715018a6146103975780637df124a1146103ae57806382c9fc85146103eb576101a7565b806323b872dd146102cb57806342842e0e146102f45780636352211e1461031d576101a7565b806301ffc9a7146101a95780630665f961146101e657806306fdde0314610211578063081812fc1461023c578063095ea7b3146102795780630e64c709146102a2576101a7565b366101a757005b005b3480156101b557600080fd5b506101d060048036038101906101cb9190613f30565b610665565b6040516101dd9190613f78565b60405180910390f35b3480156101f257600080fd5b506101fb610747565b60405161020891906140b9565b60405180910390f35b34801561021d57600080fd5b506102266108a3565b6040516102339190614125565b60405180910390f35b34801561024857600080fd5b50610263600480360381019061025e9190614173565b610935565b60405161027091906141e1565b60405180910390f35b34801561028557600080fd5b506102a0600480360381019061029b9190614228565b61097b565b005b3480156102ae57600080fd5b506102c960048036038101906102c49190614173565b610a92565b005b3480156102d757600080fd5b506102f260048036038101906102ed9190614268565b610aa4565b005b34801561030057600080fd5b5061031b60048036038101906103169190614268565b610b04565b005b34801561032957600080fd5b50610344600480360381019061033f9190614173565b610b24565b60405161035191906141e1565b60405180910390f35b34801561036657600080fd5b50610381600480360381019061037c91906142bb565b610baa565b60405161038e91906142f7565b60405180910390f35b3480156103a357600080fd5b506103ac610c61565b005b3480156103ba57600080fd5b506103d560048036038101906103d091906142bb565b610c75565b6040516103e291906142f7565b60405180910390f35b3480156103f757600080fd5b50610412600480360381019061040d9190614173565b610c8d565b005b34801561042057600080fd5b50610429610c9f565b60405161043691906141e1565b60405180910390f35b610447610cc9565b005b34801561045557600080fd5b5061045e610dbf565b60405161046b9190614125565b60405180910390f35b34801561048057600080fd5b5061049b60048036038101906104969190614173565b610e51565b6040516104af989796959493929190614312565b60405180910390f35b3480156104c457600080fd5b506104df60048036038101906104da91906143ca565b610fc9565b005b3480156104ed57600080fd5b506104f6610fdf565b60405161050795949392919061440a565b60405180910390f35b34801561051c57600080fd5b50610537600480360381019061053291906145a0565b611113565b005b34801561054557600080fd5b5061054e611175565b60405161055b91906147ab565b60405180910390f35b34801561057057600080fd5b5061058b60048036038101906105869190614173565b611381565b6040516105989190614125565b60405180910390f35b3480156105ad57600080fd5b506105b66115fd565b6040516105c39190614884565b60405180910390f35b3480156105d857600080fd5b506105e1611836565b005b3480156105ef57600080fd5b5061060a600480360381019061060591906148a6565b611e8d565b6040516106179190613f78565b60405180910390f35b34801561062c57600080fd5b50610647600480360381019061064291906142bb565b611f21565b005b610663600480360381019061065e9190614173565b611fa4565b005b60007f80ac58cd000000000000000000000000000000000000000000000000000000007bffffffffffffffffffffffffffffffffffffffffffffffffffffffff1916827bffffffffffffffffffffffffffffffffffffffffffffffffffffffff1916148061073057507f5b5e139f000000000000000000000000000000000000000000000000000000007bffffffffffffffffffffffffffffffffffffffffffffffffffffffff1916827bffffffffffffffffffffffffffffffffffffffffffffffffffffffff1916145b80610740575061073f8261249b565b5b9050919050565b61074f613e3a565b60076040518060a001604052908160008201805461076c90614915565b80601f016020809104026020016040519081016040528092919081815260200182805461079890614915565b80156107e55780601f106107ba576101008083540402835291602001916107e5565b820191906000526020600020905b8154815290600101906020018083116107c857829003601f168201915b505050505081526020016001820180546107fe90614915565b80601f016020809104026020016040519081016040528092919081815260200182805461082a90614915565b80156108775780601f1061084c57610100808354040283529160200191610877565b820191906000526020600020905b81548152906001019060200180831161085a57829003601f168201915b505050505081526020016002820154815260200160038201548152602001600482015481525050905090565b6060600080546108b290614915565b80601f01602080910402602001604051908101604052809291908181526020018280546108de90614915565b801561092b5780601f106109005761010080835404028352916020019161092b565b820191906000526020600020905b81548152906001019060200180831161090e57829003601f168201915b5050505050905090565b600061094082612505565b6004600083815260200190815260200160002060009054906101000a900473ffffffffffffffffffffffffffffffffffffffff169050919050565b600061098682610b24565b90508073ffffffffffffffffffffffffffffffffffffffff168373ffffffffffffffffffffffffffffffffffffffff16036109f6576040517f08c379a00000000000000000000000000000000000000000000000000000000081526004016109ed906149b8565b60405180910390fd5b8073ffffffffffffffffffffffffffffffffffffffff16610a15612550565b73ffffffffffffffffffffffffffffffffffffffff161480610a445750610a4381610a3e612550565b611e8d565b5b610a83576040517f08c379a0000000000000000000000000000000000000000000000000000000008152600401610a7a90614a4a565b60405180910390fd5b610a8d8383612558565b505050565b610a9a612611565b80600d8190555050565b610ab5610aaf612550565b8261268f565b610af4576040517f08c379a0000000000000000000000000000000000000000000000000000000008152600401610aeb90614adc565b60405180910390fd5b610aff838383612724565b505050565b610b1f83838360405180602001604052806000815250611113565b505050565b600080610b3083612a1d565b9050600073ffffffffffffffffffffffffffffffffffffffff168173ffffffffffffffffffffffffffffffffffffffff1603610ba1576040517f08c379a0000000000000000000000000000000000000000000000000000000008152600401610b9890614b48565b60405180910390fd5b80915050919050565b60008073ffffffffffffffffffffffffffffffffffffffff168273ffffffffffffffffffffffffffffffffffffffff1603610c1a576040517f08c379a0000000000000000000000000000000000000000000000000000000008152600401610c1190614bda565b60405180910390fd5b600360008373ffffffffffffffffffffffffffffffffffffffff1673ffffffffffffffffffffffffffffffffffffffff168152602001908152602001600020549050919050565b610c69612611565b610c736000612a5a565b565b60126020528060005260406000206000915090505481565b610c95612611565b80600e8190555050565b6000600660009054906101000a900473ffffffffffffffffffffffffffffffffffffffff16905090565b600e54341015610d0e576040517f08c379a0000000000000000000000000000000000000000000000000000000008152600401610d0590614c46565b60405180910390fd5b60116000601260003373ffffffffffffffffffffffffffffffffffffffff1673ffffffffffffffffffffffffffffffffffffffff1681526020019081526020016000205481526020019081526020016000206005015460116000601260003373ffffffffffffffffffffffffffffffffffffffff1673ffffffffffffffffffffffffffffffffffffffff16815260200190815260200160002054815260200190815260200160002060040181905550565b606060018054610dce90614915565b80601f0160208091040260200160405190810160405280929190818152602001828054610dfa90614915565b8015610e475780601f10610e1c57610100808354040283529160200191610e47565b820191906000526020600020905b815481529060010190602001808311610e2a57829003601f168201915b5050505050905090565b60116020528060005260406000206000915090508060000154908060010160009054906101000a900473ffffffffffffffffffffffffffffffffffffffff1690806002018054610ea090614915565b80601f0160208091040260200160405190810160405280929190818152602001828054610ecc90614915565b8015610f195780601f10610eee57610100808354040283529160200191610f19565b820191906000526020600020905b815481529060010190602001808311610efc57829003601f168201915b505050505090806003018054610f2e90614915565b80601f0160208091040260200160405190810160405280929190818152602001828054610f5a90614915565b8015610fa75780601f10610f7c57610100808354040283529160200191610fa7565b820191906000526020600020905b815481529060010190602001808311610f8a57829003601f168201915b5050505050908060040154908060050154908060060154908060070154905088565b610fdb610fd4612550565b8383612b20565b5050565b6007806000018054610ff090614915565b80601f016020809104026020016040519081016040528092919081815260200182805461101c90614915565b80156110695780601f1061103e57610100808354040283529160200191611069565b820191906000526020600020905b81548152906001019060200180831161104c57829003601f168201915b50505050509080600101805461107e90614915565b80601f01602080910402602001604051908101604052809291908181526020018280546110aa90614915565b80156110f75780601f106110cc576101008083540402835291602001916110f7565b820191906000526020600020905b8154815290600101906020018083116110da57829003601f168201915b5050505050908060020154908060030154908060040154905085565b61112461111e612550565b8361268f565b611163576040517f08c379a000000000000000000000000000000000000000000000000000000000815260040161115a90614adc565b60405180910390fd5b61116f84848484612c8c565b50505050565b6060600f805480602002602001604051908101604052809291908181526020016000905b82821015611378578382906000526020600020906008020160405180610100016040529081600082015481526020016001820160009054906101000a900473ffffffffffffffffffffffffffffffffffffffff1673ffffffffffffffffffffffffffffffffffffffff1673ffffffffffffffffffffffffffffffffffffffff16815260200160028201805461122d90614915565b80601f016020809104026020016040519081016040528092919081815260200182805461125990614915565b80156112a65780601f1061127b576101008083540402835291602001916112a6565b820191906000526020600020905b81548152906001019060200180831161128957829003601f168201915b505050505081526020016003820180546112bf90614915565b80601f01602080910402602001604051908101604052809291908181526020018280546112eb90614915565b80156113385780601f1061130d57610100808354040283529160200191611338565b820191906000526020600020905b81548152906001019060200180831161131b57829003601f168201915b5050505050815260200160048201548152602001600582015481526020016006820154815260200160078201548152505081526020019060010190611199565b50505050905090565b606060006011600084815260200190815260200160002060405180610100016040529081600082015481526020016001820160009054906101000a900473ffffffffffffffffffffffffffffffffffffffff1673ffffffffffffffffffffffffffffffffffffffff1673ffffffffffffffffffffffffffffffffffffffff16815260200160028201805461141490614915565b80601f016020809104026020016040519081016040528092919081815260200182805461144090614915565b801561148d5780601f106114625761010080835404028352916020019161148d565b820191906000526020600020905b81548152906001019060200180831161147057829003601f168201915b505050505081526020016003820180546114a690614915565b80601f01602080910402602001604051908101604052809291908181526020018280546114d290614915565b801561151f5780601f106114f45761010080835404028352916020019161151f565b820191906000526020600020905b81548152906001019060200180831161150257829003601f168201915b50505050508152602001600482015481526020016005820154815260200160068201548152602001600782015481525050905060006115618260800151612ce8565b905060006115728360a00151612ce8565b905060006115838460c00151612ce8565b905060006115c9856040015161159889612ce8565b87606001518787876040516020016115b596959493929190614f28565b604051602081830303815290604052612db6565b90506000816040516020016115de9190615019565b6040516020818303038152906040529050809650505050505050919050565b611605613e69565b6000601260003373ffffffffffffffffffffffffffffffffffffffff1673ffffffffffffffffffffffffffffffffffffffff1681526020019081526020016000205490506000811115611825576011600082815260200190815260200160002060405180610100016040529081600082015481526020016001820160009054906101000a900473ffffffffffffffffffffffffffffffffffffffff1673ffffffffffffffffffffffffffffffffffffffff1673ffffffffffffffffffffffffffffffffffffffff1681526020016002820180546116e190614915565b80601f016020809104026020016040519081016040528092919081815260200182805461170d90614915565b801561175a5780601f1061172f5761010080835404028352916020019161175a565b820191906000526020600020905b81548152906001019060200180831161173d57829003601f168201915b5050505050815260200160038201805461177390614915565b80601f016020809104026020016040519081016040528092919081815260200182805461179f90614915565b80156117ec5780601f106117c1576101008083540402835291602001916117ec565b820191906000526020600020905b8154815290600101906020018083116117cf57829003601f168201915b50505050508152602001600482015481526020016005820154815260200160068201548152602001600782015481525050915050611833565b61182d613e69565b80925050505b90565b600060116000601260003373ffffffffffffffffffffffffffffffffffffffff1673ffffffffffffffffffffffffffffffffffffffff16815260200190815260200160002054815260200190815260200160002090506119446040518060600160405280603c8152602001615f03603c91398260020180546118b790614915565b80601f01602080910402602001604051908101604052809291908181526020018280546118e390614915565b80156119305780601f1061190557610100808354040283529160200191611930565b820191906000526020600020905b81548152906001019060200180831161191357829003601f168201915b505050505083600401548460060154612f4d565b611a1c6040518060400160405280601b81526020017f426f73732025732068617320257320485020616e6420257320414400000000008152506007600001805461198d90614915565b80601f01602080910402602001604051908101604052809291908181526020018280546119b990614915565b8015611a065780601f106119db57610100808354040283529160200191611a06565b820191906000526020600020905b8154815290600101906020018083116119e957829003601f168201915b5050505050600760020154600760040154612f4d565b6000816004015411611a63576040517f08c379a0000000000000000000000000000000000000000000000000000000008152600401611a5a906150ad565b60405180910390fd5b600060076002015411611aab576040517f08c379a0000000000000000000000000000000000000000000000000000000008152600401611aa29061513f565b60405180910390fd5b611c046040518060400160405280601281526020017f2573207377696e67732061742025732e2e2e0000000000000000000000000000815250826002018054611af390614915565b80601f0160208091040260200160405190810160405280929190818152602001828054611b1f90614915565b8015611b6c5780601f10611b4157610100808354040283529160200191611b6c565b820191906000526020600020905b815481529060010190602001808311611b4f57829003601f168201915b505050505060076000018054611b8190614915565b80601f0160208091040260200160405190810160405280929190818152602001828054611bad90614915565b8015611bfa5780601f10611bcf57610100808354040283529160200191611bfa565b820191906000526020600020905b815481529060010190602001808311611bdd57829003601f168201915b5050505050612fef565b6002611c10600a61308e565b1115611c61578060060154600760020154611c2b919061518e565b6007600201819055508060060154816007016000828254611c4c91906151c2565b92505081905550611c5c336130ea565b611d2d565b611d2c6040518060400160405280600b81526020017f2573206d6973736564210a000000000000000000000000000000000000000000815250826002018054611ca990614915565b80601f0160208091040260200160405190810160405280929190818152602001828054611cd590614915565b8015611d225780601f10611cf757610100808354040283529160200191611d22565b820191906000526020600020905b815481529060010190602001808311611d0557829003601f168201915b505050505061314d565b5b6003611d39600a61308e565b1115611d79576007600401548160040154611d54919061518e565b8160040181905550600081600401541015611d7457600081600401819055505b611e46565b611e456040518060400160405280600b81526020017f2573206d6973736564210a00000000000000000000000000000000000000000081525060076000018054611dc290614915565b80601f0160208091040260200160405190810160405280929190818152602001828054611dee90614915565b8015611e3b5780601f10611e1057610100808354040283529160200191611e3b565b820191906000526020600020905b815481529060010190602001808311611e1e57829003601f168201915b505050505061314d565b5b7f32bd565ee3f2cb5ddd742bbecd6048d3e9abe90b3827a40c2b72d232e71e3c9d336007600201548360040154604051611e82939291906151f6565b60405180910390a150565b6000600560008473ffffffffffffffffffffffffffffffffffffffff1673ffffffffffffffffffffffffffffffffffffffff16815260200190815260200160002060008373ffffffffffffffffffffffffffffffffffffffff1673ffffffffffffffffffffffffffffffffffffffff16815260200190815260200160002060009054906101000a900460ff16905092915050565b611f29612611565b600073ffffffffffffffffffffffffffffffffffffffff168173ffffffffffffffffffffffffffffffffffffffff1603611f98576040517f08c379a0000000000000000000000000000000000000000000000000000000008152600401611f8f9061529f565b60405180910390fd5b611fa181612a5a565b50565b600d54341015611fe9576040517f08c379a0000000000000000000000000000000000000000000000000000000008152600401611fe090614c46565b60405180910390fd5b6000601260003373ffffffffffffffffffffffffffffffffffffffff1673ffffffffffffffffffffffffffffffffffffffff168152602001908152602001600020541461206b576040517f08c379a000000000000000000000000000000000000000000000000000000000815260040161206290615331565b60405180910390fd5b6040518061010001604052808281526020013373ffffffffffffffffffffffffffffffffffffffff168152602001600f83815481106120ad576120ac615351565b5b906000526020600020906008020160020180546120c990614915565b80601f01602080910402602001604051908101604052809291908181526020018280546120f590614915565b80156121425780601f1061211757610100808354040283529160200191612142565b820191906000526020600020905b81548152906001019060200180831161212557829003601f168201915b50505050508152602001600f83815481106121605761215f615351565b5b9060005260206000209060080201600301805461217c90614915565b80601f01602080910402602001604051908101604052809291908181526020018280546121a890614915565b80156121f55780601f106121ca576101008083540402835291602001916121f5565b820191906000526020600020905b8154815290600101906020018083116121d857829003601f168201915b50505050508152602001600f838154811061221357612212615351565b5b9060005260206000209060080201600401548152602001600f838154811061223e5761223d615351565b5b9060005260206000209060080201600501548152602001600f838154811061226957612268615351565b5b9060005260206000209060080201600601548152602001600081525060116000600c5481526020019081526020016000206000820151816000015560208201518160010160006101000a81548173ffffffffffffffffffffffffffffffffffffffff021916908373ffffffffffffffffffffffffffffffffffffffff1602179055506040820151816002019081612300919061552c565b506060820151816003019081612316919061552c565b506080820151816004015560a0820151816005015560c0820151816006015560e082015181600701559050506123676040518060600160405280602e8152602001615ed5602e9139600c54836131e9565b600c54601260003373ffffffffffffffffffffffffffffffffffffffff1673ffffffffffffffffffffffffffffffffffffffff168152602001908152602001600020819055506123b933600c54613288565b7f4bc303fd457a97b4691b9af582ce71868a3d258638c8d4f8c60988a0f0bfb8cd33600c54836040516123ee939291906151f6565b60405180910390a150565b6124958484848460405160240161241394939291906155fe565b6040516020818303038152906040527f5d1a971a000000000000000000000000000000000000000000000000000000007bffffffffffffffffffffffffffffffffffffffffffffffffffffffff19166020820180517bffffffffffffffffffffffffffffffffffffffffffffffffffffffff83818316178352505050506132a6565b50505050565b60007f01ffc9a7000000000000000000000000000000000000000000000000000000007bffffffffffffffffffffffffffffffffffffffffffffffffffffffff1916827bffffffffffffffffffffffffffffffffffffffffffffffffffffffff1916149050919050565b61250e816132cf565b61254d576040517f08c379a000000000000000000000000000000000000000000000000000000000815260040161254490614b48565b60405180910390fd5b50565b600033905090565b816004600083815260200190815260200160002060006101000a81548173ffffffffffffffffffffffffffffffffffffffff021916908373ffffffffffffffffffffffffffffffffffffffff160217905550808273ffffffffffffffffffffffffffffffffffffffff166125cb83610b24565b73ffffffffffffffffffffffffffffffffffffffff167f8c5be1e5ebec7d5bd14f71427d1e84f3dd0314c0f7b2291e5b200ac8c7c3b92560405160405180910390a45050565b612619612550565b73ffffffffffffffffffffffffffffffffffffffff16612637610c9f565b73ffffffffffffffffffffffffffffffffffffffff161461268d576040517f08c379a0000000000000000000000000000000000000000000000000000000008152600401612684906156a4565b60405180910390fd5b565b60008061269b83610b24565b90508073ffffffffffffffffffffffffffffffffffffffff168473ffffffffffffffffffffffffffffffffffffffff1614806126dd57506126dc8185611e8d565b5b8061271b57508373ffffffffffffffffffffffffffffffffffffffff1661270384610935565b73ffffffffffffffffffffffffffffffffffffffff16145b91505092915050565b8273ffffffffffffffffffffffffffffffffffffffff1661274482610b24565b73ffffffffffffffffffffffffffffffffffffffff161461279a576040517f08c379a000000000000000000000000000000000000000000000000000000000815260040161279190615736565b60405180910390fd5b600073ffffffffffffffffffffffffffffffffffffffff168273ffffffffffffffffffffffffffffffffffffffff1603612809576040517f08c379a0000000000000000000000000000000000000000000000000000000008152600401612800906157c8565b60405180910390fd5b6128168383836001613310565b8273ffffffffffffffffffffffffffffffffffffffff1661283682610b24565b73ffffffffffffffffffffffffffffffffffffffff161461288c576040517f08c379a000000000000000000000000000000000000000000000000000000000815260040161288390615736565b60405180910390fd5b6004600082815260200190815260200160002060006101000a81549073ffffffffffffffffffffffffffffffffffffffff02191690556001600360008573ffffffffffffffffffffffffffffffffffffffff1673ffffffffffffffffffffffffffffffffffffffff168152602001908152602001600020600082825403925050819055506001600360008473ffffffffffffffffffffffffffffffffffffffff1673ffffffffffffffffffffffffffffffffffffffff16815260200190815260200160002060008282540192505081905550816002600083815260200190815260200160002060006101000a81548173ffffffffffffffffffffffffffffffffffffffff021916908373ffffffffffffffffffffffffffffffffffffffff160217905550808273ffffffffffffffffffffffffffffffffffffffff168473ffffffffffffffffffffffffffffffffffffffff167fddf252ad1be2c89b69c2b068fc378daa952ba7f163c4a11628f55a4df523b3ef60405160405180910390a4612a188383836001613391565b505050565b60006002600083815260200190815260200160002060009054906101000a900473ffffffffffffffffffffffffffffffffffffffff169050919050565b6000600660009054906101000a900473ffffffffffffffffffffffffffffffffffffffff16905081600660006101000a81548173ffffffffffffffffffffffffffffffffffffffff021916908373ffffffffffffffffffffffffffffffffffffffff1602179055508173ffffffffffffffffffffffffffffffffffffffff168173ffffffffffffffffffffffffffffffffffffffff167f8be0079c531659141344cd1fd0a4f28419497f9722a3daafe3b4186f6b6457e060405160405180910390a35050565b8173ffffffffffffffffffffffffffffffffffffffff168373ffffffffffffffffffffffffffffffffffffffff1603612b8e576040517f08c379a0000000000000000000000000000000000000000000000000000000008152600401612b8590615834565b60405180910390fd5b80600560008573ffffffffffffffffffffffffffffffffffffffff1673ffffffffffffffffffffffffffffffffffffffff16815260200190815260200160002060008473ffffffffffffffffffffffffffffffffffffffff1673ffffffffffffffffffffffffffffffffffffffff16815260200190815260200160002060006101000a81548160ff0219169083151502179055508173ffffffffffffffffffffffffffffffffffffffff168373ffffffffffffffffffffffffffffffffffffffff167f17307eab39ab6107e8899845ad3d59bd9653f200f220920489ca2b5937696c3183604051612c7f9190613f78565b60405180910390a3505050565b612c97848484612724565b612ca384848484613397565b612ce2576040517f08c379a0000000000000000000000000000000000000000000000000000000008152600401612cd9906158c6565b60405180910390fd5b50505050565b606060006001612cf78461351e565b01905060008167ffffffffffffffff811115612d1657612d15614475565b5b6040519080825280601f01601f191660200182016040528015612d485781602001600182028036833780820191505090505b509050600082602001820190505b600115612dab578080600190039150507f3031323334353637383961626364656600000000000000000000000000000000600a86061a8153600a8581612d9f57612d9e6158e6565b5b04945060008503612d56575b819350505050919050565b606060008251905060008103612dde5760405180602001604052806000815250915050612f48565b60006003600283612def91906151c2565b612df99190615915565b6004612e059190615946565b90506000602082612e1691906151c2565b67ffffffffffffffff811115612e2f57612e2e614475565b5b6040519080825280601f01601f191660200182016040528015612e615781602001600182028036833780820191505090505b5090506000604051806060016040528060408152602001615e95604091399050600181016020830160005b86811015612f055760038101905062ffffff818a015116603f8160121c168401518060081b905060ff603f83600c1c1686015116810190508060081b905060ff603f8360061c1686015116810190508060081b905060ff603f831686015116810190508060e01b90508084526004840193505050612e8c565b506003860660018114612f1f5760028114612f2f57612f3a565b613d3d60f01b6002830352612f3a565b603d60f81b60018303525b508484525050819450505050505b919050565b612fe984848484604051602401612f679493929190615988565b6040516020818303038152906040527ff45d7d2c000000000000000000000000000000000000000000000000000000007bffffffffffffffffffffffffffffffffffffffffffffffffffffffff19166020820180517bffffffffffffffffffffffffffffffffffffffffffffffffffffffff83818316178352505050506132a6565b50505050565b613089838383604051602401613007939291906159db565b6040516020818303038152906040527f2ced7cef000000000000000000000000000000000000000000000000000000007bffffffffffffffffffffffffffffffffffffffffffffffffffffffff19166020820180517bffffffffffffffffffffffffffffffffffffffffffffffffffffffff83818316178352505050506132a6565b505050565b6000601060008154809291906130a390615a27565b91905055508142336010546040516020016130c093929190615ad8565b6040516020818303038152906040528051906020012060001c6130e39190615b15565b9050919050565b60006007600201541161314a57600060076002018190555061310b81613671565b6131496040518060400160405280601181526020017f54686520626f7373206973206465616421000000000000000000000000000000815250613748565b5b50565b6131e58282604051602401613163929190615b46565b6040516020818303038152906040527f4b5c4277000000000000000000000000000000000000000000000000000000007bffffffffffffffffffffffffffffffffffffffffffffffffffffffff19166020820180517bffffffffffffffffffffffffffffffffffffffffffffffffffffffff83818316178352505050506132a6565b5050565b61328383838360405160240161320193929190615b7d565b6040516020818303038152906040527fca47c4eb000000000000000000000000000000000000000000000000000000007bffffffffffffffffffffffffffffffffffffffffffffffffffffffff19166020820180517bffffffffffffffffffffffffffffffffffffffffffffffffffffffff83818316178352505050506132a6565b505050565b6132a28282604051806020016040528060008152506137e1565b5050565b60008151905060006a636f6e736f6c652e6c6f679050602083016000808483855afa5050505050565b60008073ffffffffffffffffffffffffffffffffffffffff166132f183612a1d565b73ffffffffffffffffffffffffffffffffffffffff1614159050919050565b600073ffffffffffffffffffffffffffffffffffffffff168473ffffffffffffffffffffffffffffffffffffffff161461337f576040517f08c379a000000000000000000000000000000000000000000000000000000000815260040161337690615c07565b60405180910390fd5b61338b8484848461383c565b50505050565b50505050565b60006133b88473ffffffffffffffffffffffffffffffffffffffff16613962565b15613511578373ffffffffffffffffffffffffffffffffffffffff1663150b7a026133e1612550565b8786866040518563ffffffff1660e01b81526004016134039493929190615c7c565b6020604051808303816000875af192505050801561343f57506040513d601f19601f8201168201806040525081019061343c9190615cdd565b60015b6134c1573d806000811461346f576040519150601f19603f3d011682016040523d82523d6000602084013e613474565b606091505b5060008151036134b9576040517f08c379a00000000000000000000000000000000000000000000000000000000081526004016134b0906158c6565b60405180910390fd5b805181602001fd5b63150b7a0260e01b7bffffffffffffffffffffffffffffffffffffffffffffffffffffffff1916817bffffffffffffffffffffffffffffffffffffffffffffffffffffffff191614915050613516565b600190505b949350505050565b600080600090507a184f03e93ff9f4daa797ed6e38ed64bf6a1f010000000000000000831061357c577a184f03e93ff9f4daa797ed6e38ed64bf6a1f0100000000000000008381613572576135716158e6565b5b0492506040810190505b6d04ee2d6d415b85acef810000000083106135b9576d04ee2d6d415b85acef810000000083816135af576135ae6158e6565b5b0492506020810190505b662386f26fc1000083106135e857662386f26fc1000083816135de576135dd6158e6565b5b0492506010810190505b6305f5e1008310613611576305f5e1008381613607576136066158e6565b5b0492506008810190505b612710831061363657612710838161362c5761362b6158e6565b5b0492506004810190505b60648310613659576064838161364f5761364e6158e6565b5b0492506002810190505b600a8310613668576001810190505b80915050919050565b60008080600090505b600f805490508110156137385782600f828154811061369c5761369b615351565b5b906000526020600020906008020160070154111561372557600f81815481106136c8576136c7615351565b5b9060005260206000209060080201600701549250600f81815481106136f0576136ef615351565b5b906000526020600020906008020160010160009054906101000a900473ffffffffffffffffffffffffffffffffffffffff1691505b808061373090615a27565b91505061367a565b506137438184613985565b505050565b6137de8160405160240161375c9190614125565b6040516020818303038152906040527f41304fac000000000000000000000000000000000000000000000000000000007bffffffffffffffffffffffffffffffffffffffffffffffffffffffff19166020820180517bffffffffffffffffffffffffffffffffffffffffffffffffffffffff83818316178352505050506132a6565b50565b6137eb8383613c1d565b6137f86000848484613397565b613837576040517f08c379a000000000000000000000000000000000000000000000000000000000815260040161382e906158c6565b60405180910390fd5b505050565b600181111561395c57600073ffffffffffffffffffffffffffffffffffffffff168473ffffffffffffffffffffffffffffffffffffffff16146138d05780600360008673ffffffffffffffffffffffffffffffffffffffff1673ffffffffffffffffffffffffffffffffffffffff16815260200190815260200160002060008282546138c8919061518e565b925050819055505b600073ffffffffffffffffffffffffffffffffffffffff168373ffffffffffffffffffffffffffffffffffffffff161461395b5780600360008573ffffffffffffffffffffffffffffffffffffffff1673ffffffffffffffffffffffffffffffffffffffff168152602001908152602001600020600082825461395391906151c2565b925050819055505b5b50505050565b6000808273ffffffffffffffffffffffffffffffffffffffff163b119050919050565b600047905060008373ffffffffffffffffffffffffffffffffffffffff166002836139b09190615915565b6040516139bc90615d3b565b60006040518083038185875af1925050503d80600081146139f9576040519150601f19603f3d011682016040523d82523d6000602084013e6139fe565b606091505b505090506000613a0c610c9f565b73ffffffffffffffffffffffffffffffffffffffff16600a84613a2f9190615915565b604051613a3b90615d3b565b60006040518083038185875af1925050503d8060008114613a78576040519150601f19603f3d011682016040523d82523d6000602084013e613a7d565b606091505b5050905060008473ffffffffffffffffffffffffffffffffffffffff166004600a86613aa99190615915565b613ab39190615946565b604051613abf90615d3b565b60006040518083038185875af1925050503d8060008114613afc576040519150601f19603f3d011682016040523d82523d6000602084013e613b01565b606091505b50509050828015613b0f5750815b8015613b185750805b613b57576040517f08c379a0000000000000000000000000000000000000000000000000000000008152600401613b4e90615d9c565b60405180910390fd5b613c156040518060400160405280601881526020017f57696e6e65723a2025730a204c617374204869743a2025730000000000000000815250601260008973ffffffffffffffffffffffffffffffffffffffff1673ffffffffffffffffffffffffffffffffffffffff16815260200190815260200160002054601260008973ffffffffffffffffffffffffffffffffffffffff1673ffffffffffffffffffffffffffffffffffffffff168152602001908152602001600020546131e9565b505050505050565b600073ffffffffffffffffffffffffffffffffffffffff168273ffffffffffffffffffffffffffffffffffffffff1603613c8c576040517f08c379a0000000000000000000000000000000000000000000000000000000008152600401613c8390615e08565b60405180910390fd5b613c95816132cf565b15613cd5576040517f08c379a0000000000000000000000000000000000000000000000000000000008152600401613ccc90615e74565b60405180910390fd5b613ce3600083836001613310565b613cec816132cf565b15613d2c576040517f08c379a0000000000000000000000000000000000000000000000000000000008152600401613d2390615e74565b60405180910390fd5b6001600360008473ffffffffffffffffffffffffffffffffffffffff1673ffffffffffffffffffffffffffffffffffffffff16815260200190815260200160002060008282540192505081905550816002600083815260200190815260200160002060006101000a81548173ffffffffffffffffffffffffffffffffffffffff021916908373ffffffffffffffffffffffffffffffffffffffff160217905550808273ffffffffffffffffffffffffffffffffffffffff16600073ffffffffffffffffffffffffffffffffffffffff167fddf252ad1be2c89b69c2b068fc378daa952ba7f163c4a11628f55a4df523b3ef60405160405180910390a4613e36600083836001613391565b5050565b6040518060a0016040528060608152602001606081526020016000815260200160008152602001600081525090565b60405180610100016040528060008152602001600073ffffffffffffffffffffffffffffffffffffffff1681526020016060815260200160608152602001600081526020016000815260200160008152602001600081525090565b6000604051905090565b600080fd5b600080fd5b60007fffffffff0000000000000000000000000000000000000000000000000000000082169050919050565b613f0d81613ed8565b8114613f1857600080fd5b50565b600081359050613f2a81613f04565b92915050565b600060208284031215613f4657613f45613ece565b5b6000613f5484828501613f1b565b91505092915050565b60008115159050919050565b613f7281613f5d565b82525050565b6000602082019050613f8d6000830184613f69565b92915050565b600081519050919050565b600082825260208201905092915050565b60005b83811015613fcd578082015181840152602081019050613fb2565b60008484015250505050565b6000601f19601f8301169050919050565b6000613ff582613f93565b613fff8185613f9e565b935061400f818560208601613faf565b61401881613fd9565b840191505092915050565b6000819050919050565b61403681614023565b82525050565b600060a08301600083015184820360008601526140598282613fea565b915050602083015184820360208601526140738282613fea565b9150506040830151614088604086018261402d565b50606083015161409b606086018261402d565b5060808301516140ae608086018261402d565b508091505092915050565b600060208201905081810360008301526140d3818461403c565b905092915050565b600082825260208201905092915050565b60006140f782613f93565b61410181856140db565b9350614111818560208601613faf565b61411a81613fd9565b840191505092915050565b6000602082019050818103600083015261413f81846140ec565b905092915050565b61415081614023565b811461415b57600080fd5b50565b60008135905061416d81614147565b92915050565b60006020828403121561418957614188613ece565b5b60006141978482850161415e565b91505092915050565b600073ffffffffffffffffffffffffffffffffffffffff82169050919050565b60006141cb826141a0565b9050919050565b6141db816141c0565b82525050565b60006020820190506141f660008301846141d2565b92915050565b614205816141c0565b811461421057600080fd5b50565b600081359050614222816141fc565b92915050565b6000806040838503121561423f5761423e613ece565b5b600061424d85828601614213565b925050602061425e8582860161415e565b9150509250929050565b60008060006060848603121561428157614280613ece565b5b600061428f86828701614213565b93505060206142a086828701614213565b92505060406142b18682870161415e565b9150509250925092565b6000602082840312156142d1576142d0613ece565b5b60006142df84828501614213565b91505092915050565b6142f181614023565b82525050565b600060208201905061430c60008301846142e8565b92915050565b600061010082019050614328600083018b6142e8565b614335602083018a6141d2565b818103604083015261434781896140ec565b9050818103606083015261435b81886140ec565b905061436a60808301876142e8565b61437760a08301866142e8565b61438460c08301856142e8565b61439160e08301846142e8565b9998505050505050505050565b6143a781613f5d565b81146143b257600080fd5b50565b6000813590506143c48161439e565b92915050565b600080604083850312156143e1576143e0613ece565b5b60006143ef85828601614213565b9250506020614400858286016143b5565b9150509250929050565b600060a082019050818103600083015261442481886140ec565b9050818103602083015261443881876140ec565b905061444760408301866142e8565b61445460608301856142e8565b61446160808301846142e8565b9695505050505050565b600080fd5b600080fd5b7f4e487b7100000000000000000000000000000000000000000000000000000000600052604160045260246000fd5b6144ad82613fd9565b810181811067ffffffffffffffff821117156144cc576144cb614475565b5b80604052505050565b60006144df613ec4565b90506144eb82826144a4565b919050565b600067ffffffffffffffff82111561450b5761450a614475565b5b61451482613fd9565b9050602081019050919050565b82818337600083830152505050565b600061454361453e846144f0565b6144d5565b90508281526020810184848401111561455f5761455e614470565b5b61456a848285614521565b509392505050565b600082601f8301126145875761458661446b565b5b8135614597848260208601614530565b91505092915050565b600080600080608085870312156145ba576145b9613ece565b5b60006145c887828801614213565b94505060206145d987828801614213565b93505060406145ea8782880161415e565b925050606085013567ffffffffffffffff81111561460b5761460a613ed3565b5b61461787828801614572565b91505092959194509250565b600081519050919050565b600082825260208201905092915050565b6000819050602082019050919050565b614658816141c0565b82525050565b600061010083016000830151614677600086018261402d565b50602083015161468a602086018261464f565b50604083015184820360408601526146a28282613fea565b915050606083015184820360608601526146bc8282613fea565b91505060808301516146d1608086018261402d565b5060a08301516146e460a086018261402d565b5060c08301516146f760c086018261402d565b5060e083015161470a60e086018261402d565b508091505092915050565b6000614721838361465e565b905092915050565b6000602082019050919050565b600061474182614623565b61474b818561462e565b93508360208202850161475d8561463f565b8060005b85811015614799578484038952815161477a8582614715565b945061478583614729565b925060208a01995050600181019050614761565b50829750879550505050505092915050565b600060208201905081810360008301526147c58184614736565b905092915050565b6000610100830160008301516147e6600086018261402d565b5060208301516147f9602086018261464f565b50604083015184820360408601526148118282613fea565b9150506060830151848203606086015261482b8282613fea565b9150506080830151614840608086018261402d565b5060a083015161485360a086018261402d565b5060c083015161486660c086018261402d565b5060e083015161487960e086018261402d565b508091505092915050565b6000602082019050818103600083015261489e81846147cd565b905092915050565b600080604083850312156148bd576148bc613ece565b5b60006148cb85828601614213565b92505060206148dc85828601614213565b9150509250929050565b7f4e487b7100000000000000000000000000000000000000000000000000000000600052602260045260246000fd5b6000600282049050600182168061492d57607f821691505b6020821081036149405761493f6148e6565b5b50919050565b7f4552433732313a20617070726f76616c20746f2063757272656e74206f776e6560008201527f7200000000000000000000000000000000000000000000000000000000000000602082015250565b60006149a26021836140db565b91506149ad82614946565b604082019050919050565b600060208201905081810360008301526149d181614995565b9050919050565b7f4552433732313a20617070726f76652063616c6c6572206973206e6f7420746f60008201527f6b656e206f776e6572206f7220617070726f76656420666f7220616c6c000000602082015250565b6000614a34603d836140db565b9150614a3f826149d8565b604082019050919050565b60006020820190508181036000830152614a6381614a27565b9050919050565b7f4552433732313a2063616c6c6572206973206e6f7420746f6b656e206f776e6560008201527f72206f7220617070726f76656400000000000000000000000000000000000000602082015250565b6000614ac6602d836140db565b9150614ad182614a6a565b604082019050919050565b60006020820190508181036000830152614af581614ab9565b9050919050565b7f4552433732313a20696e76616c696420746f6b656e2049440000000000000000600082015250565b6000614b326018836140db565b9150614b3d82614afc565b602082019050919050565b60006020820190508181036000830152614b6181614b25565b9050919050565b7f4552433732313a2061646472657373207a65726f206973206e6f74206120766160008201527f6c6964206f776e65720000000000000000000000000000000000000000000000602082015250565b6000614bc46029836140db565b9150614bcf82614b68565b604082019050919050565b60006020820190508181036000830152614bf381614bb7565b9050919050565b7f4e6f7420656e6f7567682076616c75652073656e740000000000000000000000600082015250565b6000614c306015836140db565b9150614c3b82614bfa565b602082019050919050565b60006020820190508181036000830152614c5f81614c23565b9050919050565b600081905092915050565b7f7b226e616d65223a202200000000000000000000000000000000000000000000600082015250565b6000614ca7600a83614c66565b9150614cb282614c71565b600a82019050919050565b6000614cc882613f93565b614cd28185614c66565b9350614ce2818560208601613faf565b80840191505092915050565b7f202d2d204e465420233a20000000000000000000000000000000000000000000600082015250565b6000614d24600b83614c66565b9150614d2f82614cee565b600b82019050919050565b7f222c20226465736372697074696f6e223a2022416e2065706963204e4654222c60008201527f2022696d616765223a2022000000000000000000000000000000000000000000602082015250565b6000614d96602b83614c66565b9150614da182614d3a565b602b82019050919050565b7f222c202261747472696275746573223a205b207b202274726169745f7479706560008201527f223a20224865616c746820506f696e7473222c202276616c7565223a20000000602082015250565b6000614e08603d83614c66565b9150614e1382614dac565b603d82019050919050565b7f2c20226d61785f76616c7565223a000000000000000000000000000000000000600082015250565b6000614e54600e83614c66565b9150614e5f82614e1e565b600e82019050919050565b7f7d2c207b202274726169745f74797065223a202241747461636b2044616d616760008201527f65222c202276616c7565223a2000000000000000000000000000000000000000602082015250565b6000614ec6602d83614c66565b9150614ed182614e6a565b602d82019050919050565b7f7d205d7d00000000000000000000000000000000000000000000000000000000600082015250565b6000614f12600483614c66565b9150614f1d82614edc565b600482019050919050565b6000614f3382614c9a565b9150614f3f8289614cbd565b9150614f4a82614d17565b9150614f568288614cbd565b9150614f6182614d89565b9150614f6d8287614cbd565b9150614f7882614dfb565b9150614f848286614cbd565b9150614f8f82614e47565b9150614f9b8285614cbd565b9150614fa682614eb9565b9150614fb28284614cbd565b9150614fbd82614f05565b9150819050979650505050505050565b7f646174613a6170706c69636174696f6e2f6a736f6e3b6261736536342c000000600082015250565b6000615003601d83614c66565b915061500e82614fcd565b601d82019050919050565b600061502482614ff6565b91506150308284614cbd565b915081905092915050565b7f4572726f723a20636861726163746572206d757374206861766520485020746f60008201527f2061747461636b20626f73732e00000000000000000000000000000000000000602082015250565b6000615097602d836140db565b91506150a28261503b565b604082019050919050565b600060208201905081810360008301526150c68161508a565b9050919050565b7f4572726f723a20626f7373206d757374206861766520485020746f206174746160008201527f636b206368617261637465722e00000000000000000000000000000000000000602082015250565b6000615129602d836140db565b9150615134826150cd565b604082019050919050565b600060208201905081810360008301526151588161511c565b9050919050565b7f4e487b7100000000000000000000000000000000000000000000000000000000600052601160045260246000fd5b600061519982614023565b91506151a483614023565b92508282039050818111156151bc576151bb61515f565b5b92915050565b60006151cd82614023565b91506151d883614023565b92508282019050808211156151f0576151ef61515f565b5b92915050565b600060608201905061520b60008301866141d2565b61521860208301856142e8565b61522560408301846142e8565b949350505050565b7f4f776e61626c653a206e6577206f776e657220697320746865207a65726f206160008201527f6464726573730000000000000000000000000000000000000000000000000000602082015250565b60006152896026836140db565b91506152948261522d565b604082019050919050565b600060208201905081810360008301526152b88161527c565b9050919050565b7f596f75206861766520616c7265616479206d696e74656420612063686172616360008201527f7465720000000000000000000000000000000000000000000000000000000000602082015250565b600061531b6023836140db565b9150615326826152bf565b604082019050919050565b6000602082019050818103600083015261534a8161530e565b9050919050565b7f4e487b7100000000000000000000000000000000000000000000000000000000600052603260045260246000fd5b60008190508160005260206000209050919050565b60006020601f8301049050919050565b600082821b905092915050565b6000600883026153e27fffffffffffffffffffffffffffffffffffffffffffffffffffffffffffffffff826153a5565b6153ec86836153a5565b95508019841693508086168417925050509392505050565b6000819050919050565b600061542961542461541f84614023565b615404565b614023565b9050919050565b6000819050919050565b6154438361540e565b61545761544f82615430565b8484546153b2565b825550505050565b600090565b61546c61545f565b61547781848461543a565b505050565b5b8181101561549b57615490600082615464565b60018101905061547d565b5050565b601f8211156154e0576154b181615380565b6154ba84615395565b810160208510156154c9578190505b6154dd6154d585615395565b83018261547c565b50505b505050565b600082821c905092915050565b6000615503600019846008026154e5565b1980831691505092915050565b600061551c83836154f2565b9150826002028217905092915050565b61553582613f93565b67ffffffffffffffff81111561554e5761554d614475565b5b6155588254614915565b61556382828561549f565b600060209050601f8311600181146155965760008415615584578287015190505b61558e8582615510565b8655506155f6565b601f1984166155a486615380565b60005b828110156155cc578489015182556001820191506020850194506020810190506155a7565b868310156155e957848901516155e5601f8916826154f2565b8355505b6001600288020188555050505b505050505050565b6000608082019050818103600083015261561881876140ec565b9050818103602083015261562c81866140ec565b905061563b60408301856142e8565b818103606083015261564d81846140ec565b905095945050505050565b7f4f776e61626c653a2063616c6c6572206973206e6f7420746865206f776e6572600082015250565b600061568e6020836140db565b915061569982615658565b602082019050919050565b600060208201905081810360008301526156bd81615681565b9050919050565b7f4552433732313a207472616e736665722066726f6d20696e636f72726563742060008201527f6f776e6572000000000000000000000000000000000000000000000000000000602082015250565b60006157206025836140db565b915061572b826156c4565b604082019050919050565b6000602082019050818103600083015261574f81615713565b9050919050565b7f4552433732313a207472616e7366657220746f20746865207a65726f2061646460008201527f7265737300000000000000000000000000000000000000000000000000000000602082015250565b60006157b26024836140db565b91506157bd82615756565b604082019050919050565b600060208201905081810360008301526157e1816157a5565b9050919050565b7f4552433732313a20617070726f766520746f2063616c6c657200000000000000600082015250565b600061581e6019836140db565b9150615829826157e8565b602082019050919050565b6000602082019050818103600083015261584d81615811565b9050919050565b7f4552433732313a207472616e7366657220746f206e6f6e20455243373231526560008201527f63656976657220696d706c656d656e7465720000000000000000000000000000602082015250565b60006158b06032836140db565b91506158bb82615854565b604082019050919050565b600060208201905081810360008301526158df816158a3565b9050919050565b7f4e487b7100000000000000000000000000000000000000000000000000000000600052601260045260246000fd5b600061592082614023565b915061592b83614023565b92508261593b5761593a6158e6565b5b828204905092915050565b600061595182614023565b915061595c83614023565b925082820261596a81614023565b915082820484148315176159815761598061515f565b5b5092915050565b600060808201905081810360008301526159a281876140ec565b905081810360208301526159b681866140ec565b90506159c560408301856142e8565b6159d260608301846142e8565b95945050505050565b600060608201905081810360008301526159f581866140ec565b90508181036020830152615a0981856140ec565b90508181036040830152615a1d81846140ec565b9050949350505050565b6000615a3282614023565b91507fffffffffffffffffffffffffffffffffffffffffffffffffffffffffffffffff8203615a6457615a6361515f565b5b600182019050919050565b6000819050919050565b615a8a615a8582614023565b615a6f565b82525050565b60008160601b9050919050565b6000615aa882615a90565b9050919050565b6000615aba82615a9d565b9050919050565b615ad2615acd826141c0565b615aaf565b82525050565b6000615ae48286615a79565b602082019150615af48285615ac1565b601482019150615b048284615a79565b602082019150819050949350505050565b6000615b2082614023565b9150615b2b83614023565b925082615b3b57615b3a6158e6565b5b828206905092915050565b60006040820190508181036000830152615b6081856140ec565b90508181036020830152615b7481846140ec565b90509392505050565b60006060820190508181036000830152615b9781866140ec565b9050615ba660208301856142e8565b615bb360408301846142e8565b949350505050565b7f4572723a20746f6b656e207472616e7366657220697320424c4f434b45440000600082015250565b6000615bf1601e836140db565b9150615bfc82615bbb565b602082019050919050565b60006020820190508181036000830152615c2081615be4565b9050919050565b600081519050919050565b600082825260208201905092915050565b6000615c4e82615c27565b615c588185615c32565b9350615c68818560208601613faf565b615c7181613fd9565b840191505092915050565b6000608082019050615c9160008301876141d2565b615c9e60208301866141d2565b615cab60408301856142e8565b8181036060830152615cbd8184615c43565b905095945050505050565b600081519050615cd781613f04565b92915050565b600060208284031215615cf357615cf2613ece565b5b6000615d0184828501615cc8565b91505092915050565b600081905092915050565b50565b6000615d25600083615d0a565b9150615d3082615d15565b600082019050919050565b6000615d4682615d18565b9150819050919050565b7f5472616e73666572206661696c65640000000000000000000000000000000000600082015250565b6000615d86600f836140db565b9150615d9182615d50565b602082019050919050565b60006020820190508181036000830152615db581615d79565b9050919050565b7f4552433732313a206d696e7420746f20746865207a65726f2061646472657373600082015250565b6000615df26020836140db565b9150615dfd82615dbc565b602082019050919050565b60006020820190508181036000830152615e2181615de5565b9050919050565b7f4552433732313a20746f6b656e20616c7265616479206d696e74656400000000600082015250565b6000615e5e601c836140db565b9150615e6982615e28565b602082019050919050565b60006020820190508181036000830152615e8d81615e51565b905091905056fe4142434445464748494a4b4c4d4e4f505152535455565758595a6162636465666768696a6b6c6d6e6f707172737475767778797a303132333435363738392b2f4d696e746564204e465420772f20746f6b656e496420257320616e6420636861726163746572496e6465782025730a506c6179657220772f206368617261637465722025732061626f757420746f2061747461636b2e2048617320257320485020616e64202573204144a264697066735822122014369221b1f0037a2530d45a80f0fb5443692feaaa2d605611ad486f19a55da264736f6c63430008110033446f6e6520696e697469616c697a696e6720257320772f2048502025732c20696d67202573446f6e6520696e697469616c697a696e6720626f737320257320772f2048502025732c20696d67202573",
  "linkReferences": {},
  "deployedLinkReferences": {}
}